:100000000C941B010C9438010C9438010C943801A9
:100010000C9438010C9438010C9438010C9438017C
:100020000C9438010C9438010C943A200C940D2156
:100030000C94AB180C9438010C9438010C943801D2
:100040000C9438010C9438010C9438010C9438014C
:100050000C9438010C9463190C9438010C943801F9
:100060000C9438010C9438010C9438010C9438012C
:100070000C9438010C9438010C9438010C9438011C
:100080000C9438010C9438010C9438010C9438010C
:100090000C9438010C9438010C9438010C943801FC
:1000A0000C9438010C9438010C943801D1001C03D5
:1000B0006E00750062006B00650079005F006D00E6
:1000C0006F00640075006C00650000001C035000A8
:1000D00061006C00650074007400650053007900D5
:1000E0007300740065006D00000004030904090238
:1000F0003B00020100A0FA09040000010301010015
:1001000009211101000122440007058103080001B3
:10011000090401000103000000092111010001226E
:10012000B600070582032000011201000200000052
:1001300008EDFE535900010102000105010902A169
:100140000185020901A100050919012908150025E9
:1001500001950875018102050109300931158125D4
:100160007F95027508810609381581257F950175EF
:10017000088106050C0A38021581257F950175084E
:100180008106C0C005010980A101850319012AB7B4
:1001900000150126B700950175108100C0050C09F6
:1001A00001A101850419012AA002150126A00295CA
:1001B0000175108100C005010906A101850605072A
:1001C00019E029E715002501950875018102050749
:1001D000190029EF1500250195F075018102050828
:1001E0001901290595057501910295017503910184
:1001F000C005010906A101050719E029E715002539
:10020000019508750181029501750881010507199D
:100210000029FF150026FF009506750881000508D6
:100220001901290515002501950575019102950112
:1002300075039101C00011241FBECFEFDAE0DEBFCD
:10024000CDBF11E0A0E0B1E0E0EBF7E402C0059023
:100250000D92A839B107D9F722E0A8E9B1E001C0B1
:100260001D92A13AB207E1F70E94D40F0C948523A6
:100270000C940000A1E1B0E0E0E4F1E00C94F6227F
:1002800089E0E9E1F1E0DE01119601900D928A9595
:10029000E1F724E630E049E050E0BE016F5F7F4FB8
:1002A00084E10E94781A892B51F424E630E041E081
:1002B00050E0BE01665F7F4F84E10E94C31A6196E1
:1002C000E2E00C941223642B682B611105C0ECEA68
:1002D000F0E085919491089581E090E008950E9466
:1002E0006301089581E008950E947201089581E0FC
:1002F00008950E94720108950E9479010895089559
:100300000E947F010895A6E0B0E0E9E8F1E00C94D6
:10031000F52249835A839E8330919F0189819A8176
:1003200031111AC03E81332399F0222389F00E94B3
:100330002F07182F682F89819A810E9417076981DA
:100340007A81812F0E94170E2696E3E00C941123E8
:100350000E942307182FF3CF0E942F0769817A810B
:10036000F1CFFC01262F408151816281738184810C
:1003700095810E9483010895CF93DF93D82FC92FD1
:1003800061E00E94B1016D2F7C2F0E947401DF910A
:10039000CF910895CF93DF93D82FC92F60E00E94AB
:1003A000B1016D2F7C2F0E948001DF91CF910895C4
:1003B00081E008950E94D8010895CF93C82F0E942C
:1003C000E9058C2F0E94DA012FEF84E39CE0215095
:1003D00080409040E1F700C00000CF91089581E097
:1003E0000E94DD010E948719089580E00E94DD01CE
:1003F0000E94981908950F931F93CF93DF938C0158
:1004000061E00E94B101EC01B8010E947C018823E7
:10041000B1F1B801CE010E948316882381F1B801A1
:10042000CE010E948712882351F1B801CE010E94AB
:100430005C12882321F1F8018581882381F0CA3577
:10044000FCE7DF0739F178F4C130ECE7DE07F9F0BB
:10045000C330FCE7DF07C9F0C115DC4771F0C80104
:100460000E9477010DC0CB35ECE7DE07B1F0CC354B
:10047000DC47A9F70E94630BF2CF0E94EF0180E0F6
:10048000DF91CF911F910F9108950E94750B0E94EB
:10049000F501F5CF0E946D0BE2CF0E94710BDFCF0B
:1004A0000E948D180E9479020E94611008950E9496
:1004B0007D020E9492180895089581E0089508959C
:1004C000CF93DF93D82F0E945D02C82F882319F0A5
:1004D0008D2F0E945F028C2FDF91CF910895089598
:1004E000CF93C82F0E945C028C2F0E946002CF9194
:1004F000089580E00E94700208950E94C9160E942B
:1005000070020895CF930E94C916C82F80919A0156
:100510008C1779F0C0939A010E94171960939B0180
:1005200070939C0180939D0190939E018C2F0E945B
:100530007002CF910895ADE0B0E0E1EAF2E00C94F2
:10054000F622488759876A877B878C879D87911118
:100550000E946E0A1F8286E0FE013896DE01119627
:1005600001900D928A95E1F78D8181110DC029814D
:100570003A814B815C816D817E818F810E94B409BB
:100580002D96E2E00C941223CE0101960E94BC014C
:100590008111EDCFF5CFFC018481813021F4808180
:1005A00091810E9461070895CF93DF93C82FD62FC2
:1005B000662381F00E94F5138C2F90E09C01215D51
:1005C00031092830310548F46D2F0E940111DF9167
:1005D000CF9108950E945314EFCF0E94CB14F7CF10
:1005E000CF93C82F882399F08CEF8C0F813A88F431
:1005F0008C2F0E946C17882329F08C2F0E941118D1
:100600000E94060B8C2F0E94FA170E94060BCF91B6
:10061000089580E28C0F883048F4C77081E001C0F3
:10062000880FCA95EAF70E944F0AEFCF8BE58C0F2F
:10063000833038F42C2F2452330BC9010E94FF164B
:10064000E6CFE8E5EC0FEB3150F4F0E0EE0FFF1FE2
:10065000ED5DFE4F808191810E942517D8CF83E305
:100660008C0F8331A0F661E08C2F0E94D402CFCF93
:10067000882381F19CEF980F913A28F40E94111879
:100680000E94060B089590E2980F983050F48770FE
:1006900091E001C0990F8A95EAF7892F0E94550AC7
:1006A000EFCF9BE5980F933028F480E090E00E9414
:1006B000FF16089598E5980F9B3128F480E090E0AC
:1006C0000E942517089593E3980F933118F460E082
:1006D0000E94D40208951F93CF93DF93182FEB014C
:1006E0000E94F002209739F4812F0E943803DF9195
:1006F000CF911F9108958FE99FE00197F1F700C016
:1007000000002197EFCF60E070E0893311F460E5DD
:1007100070E00E946B030895882321F00E944F0A25
:100720000E94060B0895882321F00E94550A0E941A
:10073000060B0895A0E0B0E0E0EAF3E00C94F022AC
:100740006C01D62FC72FFC011581068102950F7011
:100750000E94440AE82E8823F9F0E12E1123E1F0EB
:100760008C2F807F803461F080E28D0F8830F0F034
:100770008C2F807E803221F4D230C0F00023B1F083
:1007800080918D0282FF12C082E00E94360B0E948F
:10079000440A91E0E82EE926EC2FE295EF70C03C88
:1007A000B0F5F0E0E957FC4D0C94E022E12CF4CFD9
:1007B0000C2F0F70C03110F00295007F112399F0BB
:1007C000002359F080E28D0F883010F0D11107C05E
:1007D000802F0E944F0A0E94060B8D2F51C0802F40
:1007E0000E94600AF8CF8D2F0E943803002379F011
:1007F00080E28D0F883010F0D11104C0802F0E944C
:10080000550A03C0802F0E94660A0E94060BEE2044
:1008100089F00E94400A80FD0DC0F60115820E94F9
:100820003A0A0E947406C6010E94B0050E943A0A64
:100830000E948406CDB7DEB7E8E00C940C23FC2FB1
:10084000FF70FF2EC07FC03219F0F29480EFF822C3
:10085000DD2341F0D130D1F1112309F444C000234C
:10086000F1F0BBCF80918D0282FD15C0112359F0AC
:10087000FF2029F08F2D0E944F0A0E94060B80E076
:100880000E94F002C4CF80E00E943803FF2009F4E8
:10089000BECF8F2DB4CF112369F0011104C08F2D6D
:1008A0000E948C03B4CF013009F0B1CF8F2D0E948C
:1008B000860AADCF0111ABCF8F2D0E9493038F2DF0
:1008C0000E94920A8F2D0E94750AA1CF112321F058
:1008D000063008F09CCFE3CF053008F098CF8F2D7D
:1008E0000E94930394CF0023D1F3D93349F42FEF1F
:1008F00087EE93E0215080409040E1F700C0000077
:100900008D2F0E94380383CF8C2F86958695837018
:10091000882369F0813009F07ACF8D2F9C2F937056
:10092000111102C080E090E00E94251770CF8D2F3A
:100930009C2F9370111102C080E090E00E94FF167E
:1009400066CF612F8D2F0E94D40261CF8C2F8370D0
:10095000811139C0111129C04D2F4295469547701C
:10096000440F440F2D2F2F7030E0042E02C0220FB1
:10097000331F0A94E2F780E090E0D4FF09C08FE0D3
:1009800090E002C0880F991F4A95E2F780959095F4
:10099000C695C695C370822B932BC23071F0C330BD
:1009A00079F0C13039F00E9444060E94C9160E94B5
:1009B00070022DCF0E943B06F8CF0E944D06F5CF66
:1009C0000E943806F2CF112361F1C0FFEECF4D2F08
:1009D000429546954770440F440F2D2F2F7030E0FD
:1009E000042E02C0220F331F0A94E2F780E090E049
:1009F000D4FF09C08FE090E002C0880F991F4A958C
:100A0000E2F780959095C695C695C370822B932B7F
:100A1000C23069F0C33071F0C13031F00E94AF06CE
:100A2000C4CF823010F2D3CF0E94A606BECF0E9460
:100A3000B806BBCF0E945C06B8CFCF70112339F047
:100A40008C2F0E9474068D2F0E948C03AECF8D2FA9
:100A50000E9493038C2F0E948406A7CFD23F31F1CE
:100A600070F4D03FB9F0D13FB1F1112309F44EC079
:100A7000002309F448C08D2F0E94F00296CFD33F87
:100A8000E1F0D43F21F11111F3CF01114DC08C2FB2
:100A90008F71E1CF112341F0053008F086CF8C2F04
:100AA0008F710E94960681CF0530F7CF8C2F8F7102
:100AB0001111D1CF0E94740678CF112329F08C2F09
:100AC0008F710E94680671CF0E9463066ECF80917D
:100AD0008D0282FD06C08C2F8F71112309F4BBCFCC
:100AE000E9CF112331F063E08C2F8F710E94180B36
:100AF0005CCF81E00E94360B023008F456CF82E0D2
:100B00000E94360B52CF8C2F8F71D4CF002309F463
:100B1000BECFD93349F4EFEFF7EE23E0E150F040D8
:100B20002040E1F700C000008D2F0E9438033DCF28
:100B30000F931F93CF93DF93EC01688179818D81AF
:100B40000E946E078C010E94C1060E943706B80100
:100B5000CE010E949A03DF91CF911F910F910895CA
:100B6000CF93DF93EC018C81882399F0CE010E9412
:100B7000FB01811111C00E94440A882351F08D812C
:100B8000882339F080918D0282FF03C082E00E94A9
:100B9000360BDF91CF910895CE010E949805CE01CA
:100BA0000E94CA01F6CF80E090E00E94FF1680E02C
:100BB00090E00E9425170E946E0A0E94060B0E9478
:100BC000E8140E94CB1408950E9428180E94D305AF
:100BD00008950E945D0A0E94E4050895282F9295C9
:100BE0009F70963091F060F4925F9F70923030F475
:100BF00081E0203F79F030F4283E30F080E0089525
:100C00009A5FF3CF243FD1F7089581E0283EE0F3C7
:100C1000213FF9CF0895FC018481882339F0808138
:100C200091810E9461070E94EE05089580E0089579
:100C3000A6E0B0E0EEE1F6E00C94F6222696E2E0C3
:100C40000C941223A7E0B0E0E8E2F6E00C94F62260
:100C50002796E2E00C94122308950E942C06089532
:100C60000E942D069093A7018093A60108950895F0
:100C70000E94300608952091A6013091A701822B91
:100C8000932B0E94300608952091A6013091A70170
:100C9000822393230E94300608952091A60130916B
:100CA000A701822793270E94300608950E942C06F0
:100CB00008950E94560608950E9459069093A50132
:100CC0008093A401089580E090E00E945C0608955E
:100CD00021E030E0A90102C0440F551F8A95E2F7D8
:100CE000CA010E945C06089521E030E002C0220F94
:100CF000331F8A95E2F78091A4019091A501822B80
:100D0000932B0E945C06089521E030E002C0220F80
:100D1000331F8A95E2F7209530958091A401909138
:100D2000A501822393230E945C06089521E030E010
:100D300002C0220F331F8A95E2F78091A40190919F
:100D4000A501822793270E945C0608952091A401A3
:100D50003091A501822B932B0E945C06089520916F
:100D6000A4013091A501822393230E945C0608957B
:100D70002091A4013091A501822793270E945C064F
:100D8000089508959B01677091E001C0990F6A95DD
:100D9000EAF763E0369527956A95E1F7220F331F4E
:100DA000220F331FFA01E20FF31F40E050E0682FDB
:100DB00070E08191DF0111979B01042E02C03695EE
:100DC00027950A94E2F721702195282729232827BF
:100DD0002C934F5F5F4F4430510559F708959C01A4
:100DE000982F977083E0369527958A95E1F7220F23
:100DF000331F220F331FFB01E20FF31F40E050E0CF
:100E000080E0219130E0092E02C0369527950A94A2
:100E1000E2F721703327042E01C0220F0A94EAF76B
:100E2000822B4F5F5F4F4430510559F70895262FAD
:100E3000892B811107C040EA51E060E070E0822F09
:100E40000E94C2060895982B911107C060EA71E0D4
:100E500080E090E00E94EF06089580E00895A0E011
:100E6000B0E0E5E3F7E00C94EF228C01E090A40100
:100E7000F090A5018091A6019091A701E82AF92A96
:100E8000CFE0D0E0CC24C394D12CC6010C2E02C0FC
:100E9000880F991F0A94E2F78E219F21892B49F42C
:100EA000219798F7B12C8B2DCDB7DEB7E9E00C94E4
:100EB0000B23BC2EB8018C2F0E94210E019781F3C9
:100EC000F2CFCF93DF93D82FC92F0E942F076D2F1A
:100ED0007C2F0E94210EDF91CF9108951F93CF9315
:100EE000DF93162FD72F90919F01992341F0862FE2
:100EF000972F0E946107DF91CF911F91089588235A
:100F000081F0862F972F0E942F07C82F682F812FDF
:100F10009D2F0E941707612F7D2F8C2F0E94210E7D
:100F2000EACF862F972F0E942307C82FF4CF0F9365
:100F30001F93CF93E091A801C7E08091A9018E1380
:100F400004C0CF911F910F9108950E2F10E0CE9FF6
:100F5000F0011124E655FE4F2081318142815381F9
:100F60006481758186810E942206F8013196E770BE
:100F7000E4CF2091E2013091E3014091E4015091EE
:100F8000E5016091E6017091E7018091E8010E941E
:100F9000220608958091E801803178F48091E7017C
:100FA000882359F0E091A8012091A9013091E30133
:100FB0004091E20157E02E1301C008956E2F70E0BA
:100FC0005E9FF0011124DF01A655BE4F14968C914F
:100FD0001497882361F111968C911197831327C080
:100FE0008C91841324C015968C91159781111FC084
:100FF00012968D919C91A091E401B091E5018A1B1C
:101000009B0B883C910598F48091E8018F7080617A
:101010008093E801E055FE4F80818F70806180836E
:1010200082EE91E00E94B0050E9497070895FB01AF
:101030003196E770C0CFE091A8019091A90127E017
:10104000E91302C080E00895AE2FB0E02E9FF001BA
:101050001124E655FE4F3181361306C03081381316
:1010600003C03581341304C0FD013196E770E8CF29
:1010700081E008958F929F92AF92BF92DF92EF929C
:10108000FF920F931F93CF93DF93CDB7DEB72D97CA
:101090000FB6F894DEBF0FBECDBF8C0186E0F8011D
:1010A000DE01189601900D928A95E1F7F801E08033
:1010B000F580A280B380848192EE892E91E0992EF2
:1010C0009091E60191111BC0882309F4FCC0FF2018
:1010D00009F43DC1C8010E940B06882309F437C1F9
:1010E00087E0F801D40101900D928A95E1F7C401DF
:1010F0000E94CB020E94CA070E94B907E4C0D090A8
:10110000E7012091E4013091E501A501421B530B59
:10111000DD2009F4DBC0483C510508F0A6C0882357
:1011200009F4D1C09091E30191808091E801803170
:1011300008F06BC0991228C09091E2019E1124C062
:10114000F1105DC08F7080618093E8010E94B90743
:1011500082EE91E00E94B0058091E801F80186835B
:10116000F12C8F2D2D960FB6F894DEBF0FBECDBF9C
:10117000DF91CF911F910F91FF90EF90DF90BF9083
:10118000AF909F908F900895F11039C040E0692D85
:101190008E2D0E941B0840E0692D8E2D0E941B0899
:1011A000F82E8111DDCF888599850E946107292F4E
:1011B00022952F70903450F49F70223080F0992344
:1011C00099F0F8019681903178F4CBCF2A5F2F7097
:1011D000223078F0C8010E94B005FD2CC2CF9923BF
:1011E00019F0882309F4BDCF805E883008F4B9CFA8
:1011F000F1CF803F08F4B5CF815F8230F7CF809187
:10120000E80181608093E801ABCF991207C090910B
:10121000E2019E1103C0FF2009F479C0C8010E94B9
:101220000B06882309F493C0FF2009F490C0809135
:10123000E801803288F02091E2013091E3013A83A5
:101240002983BC82AB829091E6019D831E828F83AD
:10125000CE0101960E94B00587E0F801A2EEB1E050
:1012600001900D928A95E1F745CF9091E801903178
:10127000A0F4488559856A857B858C859D850E946B
:10128000180682EE91E00E94B00587E0F401119209
:101290008A95E9F70E94B90763CF8823A1F02091CE
:1012A000E30181812813BACF8091E2018E11B6CF7C
:1012B000F110B4CF9683C8010E94B00587E0F40115
:1012C00011928A95E9F7FF24F3944BCF483C5105DE
:1012D00008F041C08823B9F3FF20C9F19091E301E0
:1012E000818198132AC08091E2018E1126C08091DD
:1012F000E80180FD19C08031B8F08683807F803F8F
:1013000039F08681982F907F905F8F70892B86832C
:10131000C8010E94B00587E0F801A2EEB1E001909B
:101320000D928A95E1F7E8CE87E0F801A2EEB1E0F0
:1013300001900D928A95E1F7C6CFC8010E940B0675
:1013400081118ACF8091E80181608093E801C80112
:101350000E94B005B8CF488559856A857B858C8504
:101360009D850E94180691CFAEE0B0E0EAEBF9E06F
:101370000C94F522288739874A875B876C877D879D
:101380008E87CE0108960E943A088823B1F06C85BA
:10139000662341F0288539854A855B857D858E8564
:1013A0000E94220617E08091A8019091A90189135B
:1013B0003EC02E96E3E00C94112387E0FE013896A0
:1013C000DE01119601900D928A95E1F72091A90115
:1013D0004091A8018C85882329F330E0C90101964A
:1013E0008770992750E08417950799F097E0929FAE
:1013F000D001939FB00D1124A655BE4FFE0131962A
:1014000001900D929A95E1F78093A9010E949707A8
:10141000C9CF0E94E9051092A9011092A80187E0A6
:10142000E2EEF1E0DF011D928A95E9F7BBCF189F4C
:10143000C001112486559E4F0E943A08882309F462
:10144000B8CFE091A8011E9FF0011124E655FE4F90
:1014500020813181428153816481758186810E941E
:1014600022068091A80190E00196877099278093C9
:10147000A80199CF80911102869586958695089549
:10148000809111028770089590911102977081E008
:10149000911101C080E0089580913D0208959091DE
:1014A0003D02982B90933D020895982F909580913E
:1014B0003D02892380933D02089510923D020895D4
:1014C00090913C02982B90933C020895982F909510
:1014D00080913C02892380933C02089510923C0243
:1014E000089508950E94710A089590911202292F7B
:1014F0002823222331F080958923809312020E94B1
:10150000720A089508950E94820A08959091130224
:10151000292F2823281729F0982B909313020E9433
:10152000830A089590911302292F2823222331F052
:1015300080958923809313020E94830A08958091E5
:101540001302882329F01092130280E00E94830A7C
:101550000895CF93DF93C0913D0280913C02C82B48
:10156000D0911302DD2331F00E944B1781110E94AC
:101570009F0ACD2B8C2FDF91CF910895CF93DF93CE
:10158000C0910201D09103010E94A90A8883C091F1
:101590000201D091030148E050E069E072E0CE0121
:1015A0000E941D23892B59F088E0FE01A9E0B2E0DA
:1015B00001900D928A95E1F7CE010E94D616DF9137
:1015C000CF910895CF93DF93C0910001D091010195
:1015D0000E94A90A8983C0910001D091010140E2D3
:1015E00050E069EE71E0CE010E941D23892B59F075
:1015F00080E2FE01A9EEB1E001900D928A95E1F73B
:10160000CE010E94E116DF91CF91089580911801DB
:10161000882339F080918C0287FF03C00E94E20A80
:1016200008950E94BE0A089508950E94140B08951B
:1016300090918D0292FF11C098E0899F9001112432
:10164000622B609311020E947406809111028695AC
:10165000869586950E94150B08950E94740608953C
:101660001092110280E00E94150B089590911102D2
:101670008095892380931102282F277021110DC096
:10168000891759F090918D0292FF07C08695869533
:1016900086950E9484060E94300B089590918D02D9
:1016A00092FB222720F9281769F080FB92F990938A
:1016B0008D0280918C0290918D020E94960B82E0A7
:1016C0000E94360B089580918D0282FB882780F955
:1016D00091E089270E944E0B089581E00E944E0BF5
:1016E000089580E00E944E0B08956FEF7FEF80E039
:1016F00090E00E946F23089580E090E00E943B23D9
:101700009C0181E0253E3E4F09F080E0089582E093
:1017100090E00E943323089583E090E00E943323F9
:10172000089584E090E00E943B230895BC0184E08A
:1017300090E00E946F230895AB01BC018FE090E020
:101740000E9463230895AB01BC0183E190E00E94F5
:101750006323089560E070E0CB010E94A30B08951D
:1017600060E070E0CB010E949C0B0E94AA0B0895E0
:10177000A8E0B0E0EEEBFBE00C94F62265EE7EEF25
:1017800080E090E00E946F2360E082E090E00E94A1
:10179000512381E090E09093A7018093A60161E03E
:1017A00083E090E00E94512360E074E184E090E0E7
:1017B0000E946F2360E086E090E00E94512360E089
:1017C00087E090E00E94512340E050E0BA0188E0B9
:1017D00090E00E94632360E083E290E00E94512346
:1017E00060E08CE090E00E94512360E08DE090E0AA
:1017F0000E94512319821A821B821C821D821E8222
:101800001F82188648E050E067E170E0CE01019643
:101810000E94412340E050E0BA018FE190E00E9435
:1018200063230E94B00B2896E2E00C9412230E94DE
:10183000B80B0895682F8EE090E00E945123089520
:10184000A6E0B0E0E6E2FCE00C94F4220E940B1962
:101850008C0180913E0290913F028017910779F0B0
:1018600019821A820E940B19BC0149815A8180E0B9
:1018700090E00E949B0210933F0200933E02269646
:10188000E4E00C9410230E941719609349027093AE
:101890004A0280934B0290934C02609345027093EE
:1018A0004602809347029093480208950E941719B8
:1018B0006093490270934A0280934B0290934C02CA
:1018C00060934102709342028093430290934402DA
:1018D0000895089508950E94690C089508950E943E
:1018E0006E0C089589E19FE00E94E90F0E946A0C46
:1018F0000E946B0C089581E008950E947B0C08956E
:101900000E947B0C0895089508950E94830C0E9404
:10191000840C08950E947C0B811102C00E94170C58
:101920000E94870B80934D020E94910B90938D0231
:1019300080938C020E9459120E948C0B90E00E94AE
:1019400038068091A4019091A5010E94590608953E
:101950000E9402190E94600F0E948A0C0E946F026E
:101960000E942E100E946F0C0895A6E0B0E0EBEBF1
:10197000FCE00C94F4220E947D0C81110FC00E94A7
:10198000200C0E94611081110E94560C0E942415A7
:101990000E9482022696E4E00C9410230E946C0FB1
:1019A0001091400280E00E94230F181741F38091AC
:1019B0004D0281FD0E94290F0E94800C082F80E0BB
:1019C0000E94230F182F90914002891303C00E9498
:1019D000430CD7CF982790FF0EC0002361F01982E7
:1019E0001A820E940B19BC0149815A8181E0912F12
:1019F00091700E949B0210934002E9CF1F93CF93F6
:101A0000DF930E94260EEC01811522E5920708F073
:101A100053C0811540E5940708F0DDC0803E910574
:101A2000F8F48D3C910508F0AEC0883A910580F439
:101A3000853A910508F099C08130910521F004970D
:101A4000813A910550F4CE01DF91CF911F91089515
:101A5000885A91094B9708F48BC0C0E0D0E0F3CFCF
:101A6000811550E49507F8F4C11580E2D80708F015
:101A7000CBC0C83ED10538F3CE019A9581159F4160
:101A800060F78D2F0E94CA0E182FCE0199270E9451
:101A9000260E212F30E0322F2227E901CC27DF71DB
:101AA000C82BD92BD0CF99270E94260ECC27DF70C8
:101AB000C82BD92BD06AC7CF803842E59407C8F528
:101AC000803652E5950708F067C0C03482E5D80734
:101AD000B0F08C2F86958695877020E2829FC0019A
:101AE0001124C37021E030E0A90102C0440F551F4A
:101AF000CA95E2F7EA01C82BD92BDC68A4CFC03223
:101B000052E5D50708F041C08C2F8695869520E2D6
:101B1000829FC0011124C37021E030E0A90102C0FE
:101B2000440F551FCA95E2F7EA01C82BD92BDD688F
:101B30008ACF803C52E5950760F48F71C03AD24558
:101B400008F03FC090E0982F8827EC01C46FD06A5E
:101B50007ACF805C9245809708F07FCFDC2FCC272E
:101B6000CC27DF71C06FD06A6ECFA497D0646BCFE3
:101B7000C85AD0E0CC0FDD1FC75ADE4F0990D8817C
:101B8000C02DD46460CFD0655ECFCF71D0E0DC2FA4
:101B9000CC27C16FD06A57CF86958695877020E293
:101BA000829FC0011124C37021E030E0A90102C06E
:101BB000440F551FCA95E2F7EA01C82BD92BDA6802
:101BC00042CF0E94CA0EC82FD0E0DC2FCC27CC27F2
:101BD000DF71D06238CF8F710E94CA0E65E0D69552
:101BE000C7956A95E1F7CF70D0E0DC2FCC27282F7E
:101BF00030E084FF05C054E0220F331F5A95E1F70F
:101C0000C22BD32BD0691FCF8D2F8F710E94CA0E8C
:101C1000182FCE0199270E94260E212F30E0322F57
:101C2000222722273F71282B392BE901D2CF672B9E
:101C3000611104C040E00E946F01089580E090E0CF
:101C400008950E94170E0E94FE0C0895803E910593
:101C5000D1F1C8F48133910509F47FC048F4893289
:101C6000910509F46FC08A32910509F47DC0089589
:101C700089339105E1F082389105C9F085339105EA
:101C800009F45BC00895843E9105D1F148F4823E89
:101C9000910531F1833E910541F181EE90E0089587
:101CA000863E9105C1F1873E9105E1F108952091AD
:101CB0008C022370211165C020918D0223FF14C076
:101CC00089E290E0089520918C0220FD43C030917C
:101CD0008D0230FF09C024FF4EC080E090E00895DF
:101CE00020918C0222FDF7CF089520918C0222FDD5
:101CF00045C030918D0230FD44C024FFF5CFEDCFBB
:101D000020918D0221FFF0CF80918C0284FDE5CFE0
:101D100087EE90E0089520918C0223FFE5CF24FD0B
:101D2000DCCFF6CF20918C0223FD2EC030918D02A6
:101D300031FFE3CF84EE90E0089520918C0225FFDF
:101D4000D3CFBECF20918C0225FD21C020918D02E2
:101D500023FFCACF89E390E0089520918C0226FFEB
:101D6000C3CF8AE290E0089520918C0226FFBCCF79
:101D700081E390E0089583EE90E0089582EE90E094
:101D8000089580EE90E0089586EE90E0089585E352
:101D900090E0AACF90918C0292FF10C041E0282FD2
:101DA0002471243009F040E031E0282F28712830D8
:101DB00009F030E0431711F02CE0822793FF10C0A8
:101DC00041E0282F2471243109F040E031E0282F30
:101DD0002871283109F030E0431711F02CE08227F8
:101DE00030918D0230FF10C051E0282F2171213039
:101DF00009F050E041E0282F2871283009F040E038
:101E0000541711F029E0822731FF10C041E0282F3C
:101E10002171213109F040E031E0282F287128316B
:101E200009F030E0431711F029E0822794FD877E06
:101E3000089580E0089508950E941B0F0895089565
:101E40000E941F0F0895E82FF0E0E157FD4F8081B9
:101E50000895089580EA8A95F1F7089500C00895DD
:101E60000E942A0F0895F8946E98769A78940895AF
:101E70000E94330FF89425982D9A789408950F9323
:101E80001F93CF93DF938C01D62FF8946E9A769898
:101E900078940E942E0FC3B1C5FBCC27C0F981E016
:101EA000C8270E94330F6C2F8D2F0E94300FF8012E
:101EB000ED0FF11DC083DF91CF911F910F91089518
:101EC0000E94380F10928F0210928E0281E00E94C1
:101ED000910F0E941C0F0895A1E0B0E0E2E7FFE03F
:101EE0000C94F522198260E0CE0101960E943F0F0A
:101EF00090918E02898121E0981310C020E041E08A
:101F00006FE872E08EE892E00E94920F182F0E9414
:101F1000200F812F2196E3E00C94112380938E02F1
:101F2000EECF0895A0E0B0E0E8E9FFE00C94F022E5
:101F3000D82EE92EF62ED72F042FC22F222379F088
:101F400081E0809350020E940B1990934F0280937E
:101F50004E0280E0CDB7DEB7E8E00C940C23C090D1
:101F60005002CC20B1F380914E0290914F020E941A
:101F70003419059770F310E0A8016D2D7E2D8F2D7B
:101F80009D2F0E941D23892B41F0A8016D2D7E2DD0
:101F90008F2D9D2F0E942A23CC2D109250028C2F22
:101FA000D9CF0E94B50C08950E94A4180E94781DF4
:101FB0000E94720C0E94921D0E94A80C0E949F1DFC
:101FC0000E94A41D0E94D10F0E94BE1D0E94850C7C
:101FD000F7CF909399018093980108950895ACE00C
:101FE000B0E0E5EFFFE00C94F6224F835887698755
:101FF0007A878B879C8786E0FE013796DE011196F3
:1020000001900D928A95E1F729813A814B815C819B
:102010006D817E8180E090E02C96E2E00C941223AA
:10202000ACE0B0E0E6E1F0E10C94F6220E94EF0FA4
:1020300080E090E02C96E2E00C94122321E030E066
:10204000F90102C0EE0FFF1F4A95E2F7AF016623C8
:1020500011F08E2B0895409584230895E0918F010F
:10206000F091900109950E943A010E94EE0F0895A7
:10207000CF9365E572E08CE592E00E944218C82F8C
:10208000882321F08CE592E00E94F01690915D0289
:1020900086E0ECE5F2E0DF01282F1D922A95E9F7B2
:1020A00090935D02A5E5B2E001900D928A95E1F76B
:1020B00081E0C11103C0911101C080E08170CF9116
:1020C0000895A6E1B0E0E7E6F0E10C94F6228091F5
:1020D000510290915202A0915302B0915402BC015E
:1020E000CD010E9443196B8B7C8B8D8B9E8B653051
:1020F00071058105910508F482C00E94171960934B
:102100005102709352028093530290935402E091D3
:102110009101F091920140915C0250915D026091B9
:102120005E0270915F028091600290916102099558
:1021300020935C0230935D0240935E0250935F02F5
:10214000609360027093610286E0ECE5F2E0DE01EC
:102150001D9601900D928A95E1F786E0FE013D966D
:10216000DE01119601900D928A95E1F786E0FE015D
:102170003196DE01179601900D928A95E1F786E07F
:10218000FE013796ACE5B2E001900D928A95E1F739
:1021900040915C0250915D0260915E0270915F021D
:1021A00080916002909161020E94101020935C0265
:1021B00030935D0240935E0250935F026093600231
:1021C000709361020E94F6142F83388749875A87DB
:1021D0006B877C8780915D02832B80935D020E94D8
:1021E0003810811109C080915B02817010925B02EE
:1021F0006696E2E00C94122381E090E0F6CF80E056
:10220000F7CFAC01815D9109089748F4415D809159
:102210005D020E941E1080935D020E943810089596
:10222000FC0180819181803891053CF09C012F5701
:1022300031098FE731832083089580382FEF92078B
:102240002CF49C0121583F4F80E8F4CF20E030E08F
:10225000F1CFA1E1B0E0EFE2F1E10C94F3224C8781
:10226000888B998B152FF62E072FCE01079625E028
:10227000FC0111922A95E9F7209168022A3008F0B2
:1022800040C00E94EA11892B09F062C010926802D6
:102290008B8540E087FD54C060E0812F0E941E10B6
:1022A000182F20916602309167022115310509F03F
:1022B00040C041E06F8188850E9401122091640234
:1022C00030916502280F391F309365022093640214
:1022D00041E069858A850E94011220916202309155
:1022E0006302280F391F309363022093620284E651
:1022F00092E00E941011F82E82E692E00E941011E6
:10230000082F1D87FE860F8786E0FE013C96DE01C2
:10231000119601900D928A95E1F729813A814B81BE
:102320005C816D817E8180E090E06196E5E00C94B7
:102330000F23215031093093670220936602E1CFC9
:1023400061E0812F0E941E10182F24E130E0F3CFAE
:10235000909168029F5F90936802D3CF80910401AF
:10236000909105012DE7AC01249FC001259F900DA0
:10237000112408959C0161E070E0893F910560F0AF
:10238000EDE7F0E0BF010E94B822A901481B590BFC
:10239000CA01BF010E94B822609304017093050135
:1023A0000895A4E0B0E0E7EDF1E10C94F422898314
:1023B0006A834B832C8304E610E024E030E0AE0116
:1023C0004F5F5F4F60E084E10E943E1B2496E4E093
:1023D0000C9410230F931F93AC0104E610E025E04A
:1023E00030E064E084E10E94901B1F910F910895FA
:1023F0000E94F81920E040E060E080E00E94D111E6
:10240000089550E020910401309105016817D8F437
:10241000861B849FB001859F700D1124869FA001AB
:10242000879F500D1124429FC001439F900D529FE2
:10243000900D1124880F892F881F990B91959195E4
:10244000819591090895681B649FC001659F900D57
:102450001124689FA001699F500D1124429FC00163
:10246000439F900D529F900D1124880F892F881F34
:10247000990B919508950E94750B089580E00E9434
:10248000230F817008950E946C0F2FEF86E791E073
:10249000215080409040E1F700C000000E946C0F86
:1024A0000E943E12882321F00E943B120E9487194D
:1024B00008950E9443120895CF93DF93EB01863174
:1024C0009C4719F50E944C0A9D819923A1F08A7AB4
:1024D00091E0811101C090E090936902882349F056
:1024E00085E30E94FA170E94060B80E0DF91CF91EE
:1024F000089589E2F6CF80916902882321F085E36F
:102500000E941118F0CF89E2FBCF81E0EFCFCF938B
:10251000DF93EC01FB018581882309F4D2C09E0181
:1025200030572332310508F0B2C00E94910B9093CE
:102530008D0280938C02FE01E150F047E232F105FA
:1025400020F4ED56FC4D0C94E02280918C028160C9
:1025500080938C0293C080918D02886080938D025D
:102560008DC080918C028260F3CF80918C02846058
:10257000EFCF80918C028860EBCF80918D028160DB
:10258000EDCF80918D028260E9CF80918C028061D5
:10259000DFCF80918C028062DBCF80918C028064DF
:1025A000D7CF0E94E90580918C028068D1CF8091BD
:1025B0008C028C60CDCF80918D028360CFCF8091D3
:1025C0008C028E7FC5CF80918D02877FC7CF80918F
:1025D0008C028D7FBDCF80918C028B7FB9CF809193
:1025E0008C02877FB5CF80918D028E7FB7CF80918F
:1025F0008D028D7FB3CF80918C028F7EA9CF809189
:102600008C028F7DA5CF80918C028F7BA1CF0E9401
:10261000E90580918C028F779BCF80918C02837F1C
:1026200097CF80918D028C7F99CF80918C0282FB15
:10263000992790F921E0922790FB82F990FB83F98A
:1026400087CF80918D02982F909591708E7F892BE6
:1026500090FB81F983CF90918C02892F8F7B96FF1D
:10266000806476CF0E94E90590918C02892F97FBB8
:1026700087F980586DCF81E00E941A0C80918C02FE
:1026800090918D020E94960B0E94E90580E0DF91F7
:10269000CF91089580E0F0CF90918C02892F8F7EAA
:1026A00094FF806155CF90918C02892F8E7F90FF8F
:1026B00081604ECF90918D02892F877F93FF886034
:1026C0004DCF81E0E4CF282F35EB2303C001112447
:1026D00097FF04C080589109892F089580589F4F13
:1026E000FBCF8091700280FF0DC060910B0170E004
:1026F000660F771F60387105C0F561157105B9F176
:10270000862F089581FF07C060910B0184E0689FC8
:10271000B0011124EFCF82FF04C060910B0188E06B
:10272000F6CF80916F028823E9F090910A016091C1
:102730000B0170E0891730F093E0660F771F9A95D0
:10274000E1F7D8CF869F9001879F300D112483E059
:10275000220F331F8A95E1F7692F70E0C9010E94AB
:10276000CC22C8CF68E070E0CBCF8FE7089581E03E
:1027700008958091700280FF0CC06091070170E0A5
:1027800075956795759567956115710561F1862F4A
:10279000089581FF06C06091070170E07595679507
:1027A000F3CF6091070170E082FD15C020916E02A9
:1027B0002223B1F0909106016091070170E0291782
:1027C00050F4269FA001279F500D1124692F70E01F
:1027D000CA010E94CC2260387105B0F28FE70895DB
:1027E00061E070E0D4CF81E0089590917302209170
:1027F0007402922B20917602922B20917502922BDB
:10280000992331F098E090936F0291E090936E02DB
:102810008D3C31F40E947113819580937402089568
:10282000E2E3E80FE231B0F5F0E0EB54FC4D0C943C
:10283000E0220E947113F1CF0E9471138195809361
:10284000730208950E947113FACF0E94B913809306
:10285000750208950E94B9138195F9CF0E94B913AA
:1028600081958093760208950E94B913FACF815D15
:10287000990B21E030E001C0220F8A95EAF78091A0
:102880007202822B8093720208958091700281609F
:10289000809370020895809170028260F9CF8091D8
:1028A00070028460F5CF409173028D3C59F48091A1
:1028B000740287FF0DC010927402442359F41092E1
:1028C0006F0208C08E3C81F48091740218169CF34C
:1028D000442381F08091750290917602892B8111B9
:1028E00059C010926E0208958F3C41F447FFF0CF1B
:1028F00010927302809174028823E0CF803D19F416
:102900001416B4F3E5CF90917502893D29F4191698
:10291000FCF610927502DCCF8A3D19F497FFD8CFF0
:10292000F8CF909176028B3D29F497FFD1CF10928A
:102930007602CECF8C3D19F41916CCF3C9CF9FE2A5
:10294000980F983090F4815D990B21E030E0B90147
:1029500002C0660F771F8A95E2F7CB0180959091B0
:102960007202892380937202B3CF8D3D31F480913E
:1029700070028E7F80937002ABCF8E3D21F48091E8
:1029800070028D7FF7CF8F3D09F0A2CF809170024A
:102990008B7FF0CF08950E940B1920917302309124
:1029A0007402232B222321F080936C0290936D02FA
:1029B0002091750230917602232B222321F08093FF
:1029C0006A0290936B0281E792E00E94F0160895EC
:1029D00086E0E1E7F2E0DF011D928A95E9F71092C7
:1029E0006F0210926E02109270020895A6E0B0E09D
:1029F000ECEFF4E10C94F62286E0E1E7F2E0DE0190
:102A0000119601900D928A95E1F729813A814B81C7
:102A10005C816D817E8180E090E02696E2E00C94FE
:102A20001223FC01828181110DC0838181110AC0B2
:102A30008481811107C081E09581911101C080E0FE
:102A40008170089581E0FCCFA6E0B0E0EAE2F5E114
:102A50000C94F32286E0E1E7F2E09E012F5F3F4F06
:102A6000D90101900D928A95E1F7109273021092AC
:102A7000740210927502109276028B819C81892BD0
:102A80008901882391F080916C0290916D020E94DF
:102A900034199C0180916F028823C9F140910C0187
:102AA00050E04217530708F43FC08D819E81892B67
:102AB000882399F080916A0290916B020E943419E8
:102AC0009C0180916E02882309F467C0409108013F
:102AD00050E04217530708F46EC0B80181E792E056
:102AE0000E944218811105C081E792E00E941115F1
:102AF00081110E94CB1486E0F801A1E7B2E00190B9
:102B00000D928A95E1F72696E5E00C940F2340910B
:102B10000D019AE0499FA00111244217530728F69E
:102B20008F5F80936F0202C08F3FD1F7FB80FF2041
:102B300059F00E94711391E01F140CF09FEF899FD0
:102B4000802D112480937302FC80FF2059F00E9495
:102B5000711391E01F140CF09FEF899F802D1124B9
:102B60008093740280917302882309F49ECFF090C1
:102B70007402FF2009F499CF0E946313811101C0F0
:102B800081E0809373028F2D0E946313882319F0D4
:102B9000809374028ACF81E0FBCF409109019AE0D3
:102BA000499FA00111244217530708F096CF8F5F69
:102BB00080936E0202C08F3FD1F7FD80FF2059F055
:102BC0000E94B91391E01F140CF09FEF899F802D94
:102BD000112480937502FE80FF2059F00E94B913E2
:102BE00091E01F140CF09FEF899F802D112480939A
:102BF000760280917502882309F46FCFF0907602F7
:102C0000FF2009F46ACF0E946313811101C081E0A3
:102C1000809375028F2D0E946313882319F080938F
:102C200076025BCF81E0FBCF0F931F93CF93DF93AF
:102C3000C42FD22FFC0185818823C9F040937902EB
:102C40000E940B19909378028093770280E28C0F98
:102C5000883040F4C77081E001C0880FCA95EAF758
:102C60000E948C03DF91CF911F910F9108951091D5
:102C7000790214133CC080917702909178020E94EF
:102C80003419883C910598F5C0E2CD0F1D1741F12C
:102C900080E2810F883040F4177081E001C0880F16
:102CA0001A95EAF70E949303C83020F0802F0E9403
:102CB0008303D8CF91E08D2F877001C0990F8A953B
:102CC000EAF7892F0E948C03802F0E948303D7701C
:102CD00081E001C0880FDA95EAF70E949303C2CF22
:102CE000802F0E948303C83008F0BCCFF0CF80E271
:102CF0008C0F883008F0B6CFC77081E001C0880F14
:102D0000CA95EAF7EACF0F93FC01CB01E851FC47E3
:102D1000E730F10590F5E953FC4D0C94E02206E212
:102D200021EE41EE6AE17CE70E94141680E00F91EB
:102D3000089507E225EE45EE6BE17CE7F5CF06E26C
:102D400021EE40EE68E17CE7EFCF07E225EE44EEAE
:102D500069E17CE7E9CF06E221EE42EE6CE17CE737
:102D6000E3CF07E225EE46EE6DE17CE7DDCF08E23A
:102D700021E045EE6EE17CE7D7CFFB018581811133
:102D80001092790281E0D3CF90937F0280937E02EC
:102D90000895E0917E02F0917F02309729F0019032
:102DA000F081E02D0995089580E00895E0917E027C
:102DB000F0917F02309721F00280F381E02D099598
:102DC0000895DC01E0917E02F0917F02309739F0A6
:102DD00086E08C930480F581E02DCD01099508955E
:102DE000DC01E0917E02F0917F02309739F082E0C1
:102DF0008C930680F781E02DCD0109950895A3E01D
:102E0000B0E0E5E0F7E10C94F6229C0180917C02B1
:102E100090917D0282179307A1F030937D02209359
:102E20007C02E0917E02F0917F02309751F083E0C6
:102E300089833B832A830084F185E02DCE010196AE
:102E400009952396E2E00C941223A3E0B0E0EBE2B4
:102E5000F7E10C94F6229C0180917A0290917B021A
:102E600082179307A1F030937B0220937A02E091BE
:102E70007E02F0917F02309751F084E089833B839A
:102E80002A830084F185E02DCE01019609952396D1
:102E9000E2E00C94122320910201309103012E5F95
:102EA0003F4F809118018823A9F080918C0287FF01
:102EB00011C020910001309101012E5F3F4F9DE133
:102EC00080E0F90140812F5F3F4F41118F5F9150AA
:102ED000C0F7089595E0F4CF882321F1909118016F
:102EE000992311F190918C0297FF1EC0982F96950F
:102EF00096959695803FB0F4E0910001F091010124
:102F0000E90FF11D228130E0877041E050E0BA0105
:102F100002C0660F771F8A95E2F72623372381E0E8
:102F2000232B91F480E00895209102013091030158
:102F3000F9013296285F3F4F9191981721F0E217DF
:102F4000F307D1F7EFCF81E008959C01FC013296A1
:102F50008FEF90E04191461751F08F3F19F44111E6
:102F600001C0892F9F5F9630A9F78F3F09F408951C
:102F7000280F311D87FD3A95F901628308959C0160
:102F8000FC013296285F3F4F8191861303C0DF0119
:102F900011971C92E217F307B9F70895FC01862FE9
:102FA000869586958695603F60F4E80FF11D677001
:102FB00021E030E001C0220F6A95EAF78281822B7E
:102FC00082830895FC01862F869586958695603FBD
:102FD00080F4E80FF11D677081E090E09C0102C071
:102FE000220F331F6A95E2F7B90160958281682349
:102FF00062830895682F80911801882359F0809189
:103000008C0287FF07C080910001909101010E940E
:10301000CE17089580910201909103010E94A51797
:103020000895682F80911801882359F080918C02AF
:1030300087FF07C080910001909101010E94E21773
:10304000089580910201909103010E94BF17089595
:1030500080911801882379F080918C0287FF0BC042
:10306000E0910001F091010132968EE1DF011D92A5
:103070008A95E9F70895E0910201F09103013296F3
:1030800086E0F4CFDC01FB0111969C9111978181C0
:10309000981322C012968C911297882319F092816E
:1030A00089131AC013968C911397882319F0938172
:1030B000891312C015968C911597882319F0958164
:1030C00089130AC014969C91992321F081E02481F0
:1030D000291303C080E001C081E081700895089544
:1030E0000E946F1808958F5F809380020E9470186D
:1030F000089583E0809380020E94701808950E94D2
:103100007318089581E0809380020E9470180895DA
:103110000E9482180895089508950E948C180895B9
:10312000089508950E948B1808950E9490180E9497
:103130006C0F0E94911880E00E94230F982F81E06D
:10314000911101C080E0089585B7806885BF85B77B
:10315000806885BF08951F921FB61F9211248F9318
:103160009F93AF93BF9380918102811113C080918F
:10317000900290919102A0919202B0919302419697
:10318000A11DB11D8093900290939102A093920291
:10319000B0939302BF91AF919F918F911F901FBEEB
:1031A0001F90189580919802843031F10E9450024E
:1031B0001092810288E190E020E40FB6F894A8957F
:1031C000809360000FBE2093600083B7817F84608E
:1031D00083BF83B7816083BF7894889583B78E7FE0
:1031E00083BF0FB6F894A8958091600088618093A2
:1031F0006000109260000FBE08950E94E9050E94D1
:103200005702089582E084BD93E095BD9AEF97BD83
:1032100080936E0008952FB7F8948091900290915A
:103220009102A0919202B09193022FBF0895A4E061
:10323000B0E0EDE1F9E10C94F6228FB7F89420911B
:103240009002309191024091920250919302298311
:103250003A834B835C838FBF69817A818B819C81A8
:103260002496E2E00C9412239C014FB7F8948091CD
:10327000900290919102A0919202B09193024FBF5F
:10328000821B930B0895A4E0B0E0E9E4F9E10C940B
:10329000F422462F572FBC012FB7F894809190024B
:1032A00090919102A0919202B09193022FBF8C0154
:1032B0009D01041B150B260B370BC901B801249681
:1032C000E4E00C94102378941F921FB61F921124EF
:1032D0008F939F93AF93BF938091900290919102AF
:1032E000A0919202B09193020196A11DB11D80930D
:1032F000900290939102A0939202B0939302BF9197
:10330000AF919F918F911F901FBE1F90189587E7D7
:1033100097E7909301088093000888E19AE00FB640
:10332000F894A895809360000FBE90936000FFCF43
:1033300088E19AE00FB6F894A895809360000FBEDC
:1033400090936000FFCFFF920F931F93CF93DF9373
:10335000182FEB011092BC0084EA8093BC000E94FD
:103360000B19082FF92E8091BC0087FF28C080918F
:10337000B900887F883029F08091B900887F80313A
:10338000A1F51093BB0084E88093BC000E940B1948
:10339000182F092F8091BC0087FF1FC02091B90012
:1033A000287F80E090E0283199F081E090E020349F
:1033B00011F480E090E091958195910909C0802FEA
:1033C0009F2D0E943419C817D90768F68EEF9FEF1A
:1033D000CDB7DEB7E5E00C940F23812F902F0E942C
:1033E0003419C817D907B0F6F1CF8FEF9FEFF0CFA0
:1033F0001092B9008CE08093B80008950F931F934A
:10340000CF93DF93EB018093BB0084E88093BC00F3
:103410000E940B19182F092F8091BC0087FF11C043
:103420002091B900287F81E090E0283211F480E0FB
:1034300090E0919581959109DF91CF911F910F9126
:103440000895CF3FDC0741F3812F902F0E9434195C
:10345000C817D90708F78EEF9FEFEECF0F931F9392
:10346000CF93DF93EC0184EC8093BC000E940B1996
:10347000182F092F8091BC0087FF08C08091BB00E6
:1034800090E0DF91CF911F910F910895CF3FDC071E
:1034900089F3812F902F0E943419C817D90750F74C
:1034A0008EEF9FEFEECF0F931F93CF93DF93EC013F
:1034B00084E88093BC000E940B19182F092F80917B
:1034C000BC0087FF08C08091BB0090E0DF91CF91E6
:1034D0001F910F910895CF3FDC0789F3812F902F23
:1034E0000E943419C817D90750F78EEF9FEFEECF1F
:1034F000A0E0B0E0EEE7FAE10C94EB22782E5B015D
:103500006A0189010E940B194C010431110560F117
:103510000F3F100769F1C80164E170E00E94B82212
:10352000F62EE72E6F2D7E2D872D0E94A319EC011C
:1035300097FF09C00F3F1007A9F3C4010E94341977
:103540000817190778F77501CA0CDB1CEC14FD0489
:1035500011F0D7FF10C084E98093BC00CE01CDB735
:10356000DEB7EDE00C940723FF24F394E12CDACFCF
:1035700085E0F82EFBCFB801F70181917F010E9411
:10358000FE19EC01E3CFA3E0B0E0E9ECFAE10C9422
:10359000EA226B018A017901816089830E940B19FB
:1035A0004C0184E1E816F104C0F19FEFE916F90639
:1035B000C1F1C70164E170E00E94B822B62EA72EC7
:1035C0006B2D7A2D89810E94A3198A839B838A811E
:1035D0009B8197FF0AC09FEFE916F90689F3C401A2
:1035E0000E943419E816F90658F7015011095801DC
:1035F0000115110589F58A819B8197FD31C0C701AD
:103600000E94531A8A839B838A819B8197FD28C0DD
:10361000F601E00FF11F808323C0BB24B394A12CDB
:10362000CFCF85E0B82EFBCF812C912C3501C7017F
:103630000E942E1A8A839B838A819B8197FD10C0EA
:10364000F601E80DF91D80839FEF891A990A83011D
:103650008A149B0460F3CFCF8A819B8197FFE4CFCC
:1036600084E98093BC008A819B811816190614F4A2
:1036700080E090E02396EEE00C940623A0E0B0E01A
:10368000E4E4FBE10C94EA22682E962E5A016901CB
:1036900078010E940B19782E892E0431110530F122
:1036A0000F3F100731F1C80164E170E00E94B822B9
:1036B000162F072F612F702F862D0E94A319EC0162
:1036C00097FF19C0FFEFEF16FF06A1F3872D982D86
:1036D0000E943419E816F90668F784E98093BC0063
:1036E000CE01CDB7DEB7EEE00C94062311E000E08A
:1036F000E1CF15E0FCCFB701892D0E94FE19EC0146
:103700008501CA0CDB1C0C151D0539F3D7FDE5CF6F
:10371000B701F80181918F010E94FE19EC01F3CFEE
:10372000A0E0B0E0E6E9FBE10C94EA22982E862EB8
:103730005A01690178010E940B193C0104311105FD
:1037400050F10F3F100751F1C80164E170E00E9491
:10375000B822162F072F612F702F892D0E94A319D1
:10376000EC0197FF1DC0FFEFEF16FF06A1F3C301A9
:103770000E943419E816F90670F784E98093BC00BA
:10378000CE011C161D0614F480E090E0CDB7DEB724
:10379000EEE00C94062311E000E0DDCF15E0FCCF55
:1037A000B701882D0E94FE19EC0197FDE6CF6894C1
:1037B00090F80E940B19782E892E84E1E816F10406
:1037C00090F1EFEFEE16FE0689F1C70164E170E0BB
:1037D0000E94B822162F072F612F702F892D0E946B
:1037E000A319EC0197FF0BC0FFEFEF16FF06A1F343
:1037F000872D982D0E943419E816F90668F781E0A4
:10380000C81AD1088601C114D10491F4D7FDB5CFEF
:10381000C7010E94531AEC0197FDAFCFAC0CBD1C41
:10382000F5018083AACF11E000E0D6CF15E0FCCFF0
:10383000D7FDA3CF812C912C3801C7010E942E1AED
:10384000EC0197FD9ACFF501E80DF91D8083EFEFAC
:103850008E1A9E0A63018016910678F3D7CF809165
:103860008A020895282FCB01BA0130919802343092
:10387000E1F42F702093E9002FEF3091E80035FD3F
:1038800007C035ED3A95F1F7000021502111F5CF31
:103890002091E80025FF09C040E050E00E94361E5C
:1038A0008091E8008E778093E8000895BC0143E0A2
:1038B00050E082E00E94321C0895BC0146E050E0D6
:1038C00082E00E94321C0895BC0140E250E082E098
:1038D0000E94321C0895CF93DF93D82FC92F48E060
:1038E00050E0682F792F81E00E94321C88E0ED2F94
:1038F000FC2FA2E8B2E001900D928A95E1F7DF91EA
:10390000CF91089580919702811109C00E94BE1F36
:103910000E941B208091E20084608093E200089561
:103920001092970208950E9482180895609194025F
:1039300081E0611101C080E00E94791808959091A2
:10394000980281E0943009F080E0609194020E9436
:103950007F18089542E061EC81E00E943A1F42E244
:1039600061EC82E00E943A1F9091980281E09430CD
:1039700009F080E0609194020E947318089580918C
:103980009A02893089F148F4823009F4A0C083306A
:1039900009F45AC0813041F008958A3009F487C093
:1039A0008B3009F46CC0089580919902813A09F036
:1039B0004AC08091E800877F8093E80080919D0253
:1039C00090919E02892B61F060E080E090E070E0D1
:1039D0000E94851E8091E8008B778093E80008950F
:1039E00068E082E892E0F3CF80919902813259F544
:1039F00080919D0290919E02029728F58091E800A7
:103A0000877F8093E8008091E80082FF18C0909142
:103A1000F3008091F200029731F48091F10081303F
:103A200011F0863021F48091F10080938A02809118
:103A3000E8008B778093E8000E946E1F04C080919D
:103A400098028111E0CF089580919902813AD9F7C7
:103A500080919D0290919E02892BA9F78091E800A8
:103A6000877F8093E8008091E80080FFFCCF809101
:103A700018018093F1008091E8008E77DBCF809170
:103A80009902813201F780919D0290919E02892BCB
:103A9000D1F68091E800877F8093E8000E946E1F36
:103AA00080919B02809318010E94E90508958091FE
:103AB0009902813241F68091E800877F8093E80087
:103AC0000E946E1F80919C0280938B0208958091CA
:103AD0009902813A09F0B7CF8091E800877F8093FF
:103AE000E8008091E80080FFFCCF80918B02C1CF7D
:103AF00084B7877F84BF0FB6F894A8958091600043
:103B0000886180936000109260000FBE80E890E0B2
:103B10000FB6F89480936100909361000FBE0E94ED
:103B2000881808950E94BE1F0E941B20E2EEF0E05C
:103B300080818460808378940E949E2208958EE024
:103B400091E00E94C416089580919802853031F466
:103B500080919802853019F00E94FD1808950E9406
:103B6000D21880919602882399F30E949518882391
:103B700079F30E94201E0E94E905EACF08959A0178
:103B800040919F025091A0020E94C71D0895AC0170
:103B9000CB01D901252F332723303105E1F058F42B
:103BA00021303105C9F122303105D9F180E090E0B2
:103BB00020E030E01EC02132310521F122323105F2
:103BC000A9F7892BC1F16130710581F786EB90E08F
:103BD0002BE331E00EC0CA019927413069F08230F1
:103BE000910569F0EAEEF0E0892B01F7849190E00D
:103BF0009F012D933C930895ECECF0E0F7CFEEEAB3
:103C0000F0E0F4CF892B91F06130710579F689E00D
:103C100090E029E131E0EDCF82E190E029E231E06E
:103C2000E8CF8BE390E02EEE30E0E3CF89E090E048
:103C300020E031E0DECF84E490E021EF31E0D9CF25
:103C400080E189BD82E189BD09B400FEFDCF80918C
:103C5000D8008F7D8093D8008091E00082608093AF
:103C6000E0008091E00081FDFCCF0895AF92BF920B
:103C7000CF92DF92FF920F931F93CF93DF936C014C
:103C8000EB018A010E948D1FF82E811123C00115BE
:103C9000110539F0F80180819181C81BD90BC80E3C
:103CA000D91EA12CB12C2097A9F08091E80085FDA8
:103CB00022C08091E8008E778093E80001151105FD
:103CC000A1F0F801808191818A0D9B1D91838083F1
:103CD00085E0F82E8F2DDF91CF911F910F91FF90EE
:103CE000DF90CF90BF90AF9008950E948D1F8823E2
:103CF000E1F2F82EEFCFF60181916F018093F10090
:103D00002197FFEFAF1ABF0ACECFFC019B01809134
:103D10009F029091A0028617970718F0672B61F019
:103D2000C90140E0009771F441110CC08091E80096
:103D300082FF35C080E008958091E8008E778093FF
:103D4000E800EECF209198022223A9F12530A9F1B5
:103D50002091E80023FD2DC02091E80022FDE6CF50
:103D60002091E80020FFDECF3091F3002091F20097
:103D7000009719F02830310558F041E0283031051E
:103D800009F040E02091E8002E772093E800CACFA8
:103D900041914093F10001972F5F3F4FE9CF809110
:103DA0009802882341F0853041F08091E80083FF3C
:103DB000BDCF81E0089582E0089583E00895FC017D
:103DC0009B0180919F029091A0028617970718F09F
:103DD000672B61F0C90140E0009771F441110CC0FC
:103DE0008091E80082FF36C080E008958091E8006D
:103DF0008E778093E800EECF209198022223B1F1D4
:103E00002530B1F12091E80023FD2EC02091E8007B
:103E100022FDE6CF2091E80020FFDECF3091F300B5
:103E20002091F200009719F02830310558F041E058
:103E30002830310509F040E02091E8002E772093EA
:103E4000E800CACF44914093F100319601972F5F6B
:103E50003F4FE8CF80919802882341F0853041F0B0
:103E60008091E80083FFBCCF81E0089582E008954F
:103E700083E00895982F973028F08F708093E900A1
:103E800081E008959093E900242F762F50E0981751
:103E900031F07091EC002091ED005091F00021FD87
:103EA00002C09F5FE8CF3091EB003E7F3093EB0084
:103EB0003091ED003D7F3093ED003091EB003160AB
:103EC0003093EB007093EC002093ED005093F000E2
:103ED0002091EE0027FDE5CF80E0089580919902C2
:103EE00087FF13C08091E80082FF06C08091E80040
:103EF0008B778093E80004C0809198028111F2CF03
:103F00000895809198028823D9F38091E80080FF7A
:103F1000F8CF8091E8008E77ECCF2091E4003091CB
:103F2000E50095E6A9018091EC008170882331F0CD
:103F30008091E80080FF06C080E008952091E800AD
:103F400022FD1BC080919802882391F0853091F06A
:103F50008091EB0085FD10C02091E4003091E500D8
:103F60004217530701F391509111DCCF84E008957B
:103F700082E0089583E0089581E008950E942D2055
:103F80000E943520E0EEF0E0808181608083E8EDE2
:103F9000F0E080818F77808319BCA7EDB0E08C9131
:103FA0008E7F8C9380818F7E8083109297020895FC
:103FB0000F931F93CF93DF930E942D200E943520F3
:103FC000C8EDD0E088818F77888388818068888376
:103FD00088818F7D888319BC109298021092940278
:103FE000109296021092950200EE10E0F801808186
:103FF0008B7F808388818160888342E060E080E0FD
:104000000E943A1FE1EEF0E080818E7F8083E2EE35
:10401000F0E0808181608083808188608083F80106
:1040200080818E7F8083888180618883DF91CF91BA
:104030001F910F910895E8EDF0E080818F7E8083DD
:10404000E7EDF0E080818160808384E082BF81E0E1
:10405000809397020E94D81F0895E8EDF0E08081D8
:104060008E7F80831092E20008951092DA00109201
:10407000E10008951F920F920FB60F9211242F9313
:104080003F934F935F936F937F938F939F93AF93E0
:10409000BF93EF93FF938091E10082FF0BC080916B
:1040A000E20082FF07C08091E1008B7F8093E100F6
:1040B0000E949D228091DA0080FF19C08091D80073
:1040C00080FF15C08091DA008E7F8093DA008091A6
:1040D000D90080FF94C080E189BD82E189BD09B427
:1040E00000FEFDCF81E0809398020E94821C8091A7
:1040F000E10080FF19C08091E20080FF15C080912F
:10410000E2008E7F8093E2008091E20080618093E4
:10411000E2008091D80080628093D80019BC85E0CD
:10412000809398020E94961C8091E10084FF29C030
:104130008091E20084FF25C080E189BD82E189BDD4
:1041400009B400FEFDCF8091D8008F7D8093D80008
:104150008091E1008F7E8093E1008091E2008F7E6C
:104160008093E2008091E20081608093E200809180
:104170009402882309F449C084E0809398020E9445
:104180009F1C8091E10083FF29C08091E20083FFA2
:1041900025C08091E100877F8093E10082E08093D9
:1041A0009802109294028091E1008E7F8093E1004A
:1041B0008091E2008E7F8093E2008091E200806136
:1041C0008093E20042E060E080E00E943A1F80912C
:1041D000F00088608093F0000E94931CFF91EF91A3
:1041E000BF91AF919F918F917F916F915F914F910F
:1041F0003F912F910F900FBE0F901F90189519BCF3
:10420000109298020E94901C72CF8091E30087FF69
:1042100002C083E0B2CF81E0B0CF1F920F920FB601
:104220000F921124FF920F931F932F933F934F935D
:104230005F936F937F938F939F93AF93BF93CF932E
:10424000DF93EF93FF9309EE10E0F8018081C091B6
:10425000EC00C795CC27C7958F70FC2EF82A1082EA
:10426000C0EFD0E08881877F888378940E945621B0
:10427000F8011082888188608883CF2DCF70C08339
:10428000FF91EF91DF91CF91BF91AF919F918F916E
:104290007F916F915F914F913F912F911F910F915E
:1042A000FF900F900FBE0F901F901895AAE2B0E0FC
:1042B000ECE5F1E20C94F52289E992E0FC0101962B
:1042C0002091F100208322E0813A9207B9F70E9401
:1042D000BF1C8091E80083FF38C0809199029091C3
:1042E0009A029A3090F5E92FF0E0E253FC4D0C94DD
:1042F000E022803889F0823841F580919D028F70EC
:10430000873018F58093E9008091EB0085FB8827C2
:1043100080F91092E90006C0809195029091960272
:10432000911182609091E800977F9093E8008093CC
:10433000F1001092F1008091E8008E7723C0811186
:1043400016C080919B02813011F18091E80083FFBB
:104350000AC08091E800877F8093E8008091EB009D
:1043600080628093EB00AA96E3E00C9411238230E4
:1043700061F780919B02882389F01092E900809177
:10438000E800877F8093E8000E946E1FDECF81E007
:10439000933009F080E080939602EFCF80919D02E8
:1043A0008F702FEF280F263080F68093E900209140
:1043B000EB0020FFE2CF933031F48091EB0080627C
:1043C0008093EB00DACF9091EB0090619093EB003B
:1043D00021E030E0A90102C0440F551F8A95E2F7A1
:1043E0004093EA001092EA008091EB008860E8CFE9
:1043F0008111ABCF10919B021F778091E3008078F1
:10440000812B8093E3008091E800877F8093E80010
:104410000E946E1F8091E80080FFFCCF8091E30036
:1044200080688093E30083E0111101C082E08093F3
:1044300098028BCF8058823008F087CF80919B0202
:1044400090919C028C3D53E0950799F583E08A8317
:104450008AE289834FB7F894DE01139620E03EE0AC
:1044600051E2E32FF0E050935700849120FF03C006
:1044700082958F703F5F8F708A30C8F0895C90E0C2
:104480008D939D932F5F243161F74FBF8091E8009A
:10449000877F8093E8006AE270E0CE0101960E9477
:1044A000851E8091E8008B778093E8004ECF805D79
:1044B000E6CF60919D0270919E02AE014F5F5F4F0B
:1044C0000E94BF1DBC01892B09F43FCF8091E800F9
:1044D000877F8093E80089819A810E94DF1EE1CF67
:1044E000803809F032CF8091E800877F8093E80020
:1044F000809194028093F1001ECF811126CF90917C
:104500009B02923008F021CF8091E800877F809352
:10451000E800909394020E946E1F80919402882379
:1045200031F084E0809398020E94AA1C0ECF809103
:10453000E30087FDF6CF81E0F5CF0895CF9380911A
:104540009802882399F08091E900C091EC00C7950A
:10455000CC27C7958F70C82B1092E9008091E80096
:1045600083FD0E945621CF70C093E900CF9108953A
:10457000AA1BBB1B51E107C0AA1FBB1FA617B70789
:1045800010F0A61BB70B881F991F5A95A9F78095A5
:104590009095BC01CD01089597FB072E16F4009469
:1045A00007D077FD09D00E94B82207FC05D03EF461
:1045B000909581959F4F0895709561957F4F0895CF
:1045C000EE0FFF1F0590F491E02D09942F923F927A
:1045D0004F925F926F927F928F929F92AF92BF9213
:1045E000CF92DF92EF92FF920F931F93CF93DF93BF
:1045F000CDB7DEB7CA1BDB0B0FB6F894DEBF0FBE1C
:10460000CDBF09942A88398848885F846E847D8468
:104610008C849B84AA84B984C884DF80EE80FD806A
:104620000C811B81AA81B981CE0FD11D0FB6F894E0
:10463000DEBF0FBECDBFED010895FB01DC0104C05C
:104640008D910190801921F441505040C8F7881B8A
:10465000990B0895FB01DC0102C001900D924150BD
:104660005040D8F70895F999FECF92BD81BDF89AD0
:10467000992780B50895A8E1B0E042E050E00C949D
:104680007723DC01A40FB51F4150504048F0CB0107
:10469000840F951F2E910E94522341505040D0F715
:1046A0000895262FF999FECF92BD81BDF89A019702
:1046B00000B4021639F01FBA20BD0FB6F894FA9A6A
:1046C000F99A0FBE08950396272F0E9452230E9445
:1046D0005123252F0E945223242F0C9452230196FC
:1046E000272F0E9452230C945123DC01CB01FC01A3
:1046F000F999FECF06C0F2BDE1BDF89A319600B43B
:104700000D9241505040B8F70895F894FFCFD80368
:10471000D8031F041F048404A10407040704A6048B
:104720001D052E052E05DF125313E712B112B51227
:10473000EB12B912EF12FB12C5124C13C912FF1281
:10474000CD1203132B13D11207133213D7120D13EB
:104750001513BD12F312C112F712DB12111321133C
:104760003B134A13AB12E3125A1319141C142214EC
:1047700037143714371437143714371437143714E1
:1047800025142A142E14341445144B144F149F1658
:10479000A5168F169916AB16B116B71679219F215B
:1047A000A5219F21A521F8211A22A52170227D2271
:1047B000140234028000280850011E0A14012F1C24
:1047C0006B1C641C5D1C561C01480320032002580E
:1047D000025800E200E900EA00B500B600B700CDDB
:1047E000008301CC008A019201940121022302245A
:1047F000022502260227022A02B300B4006F0070CD
:10480000009F01CB019F02A002E200E900EA00B58F
:1048100000B600B700CD008301CC008A019201945C
:10482000012102230224022502260227022A02B3C2
:1048300000B4006F0070009F01CB019F02A002F83E
:08484000112911BA11AE11009B
:00000001FF
