:100000000C941B040C9438040C9438040C9438049D
:100010000C9438040C9438040C9438040C94380470
:100020000C9438040C9438040C94282D0C94FB2D5B
:100030000C949F250C9438040C9438040C943804C8
:100040000C9438040C9438040C9438040C94380440
:100050000C9438040C9457260C9438040C943804EF
:100060000C9438040C9438040C9438040C94380420
:100070000C9438040C9438040C9438040C94380410
:100080000C9438040C9438040C9438040C94380400
:100090000C9438040C9438040C9438040C943804F0
:1000A0000C9438040C9438040C943804526164693C
:1000B000616C65780014471A000800150017001CD1
:1000C0000018000C00120013000400160007460977
:1000D000000A000B000D000E460F0028001D221B19
:1000E0002806001900050011001000360037212AEB
:1000F000004600E000E30091242B222C429041E6D0
:1001000000E700E4002900E10028004C00407E00E8
:10011000000000000000001E001F0020002100223F
:1001200000230024002500260027002E212F003860
:10013000002D008700330034003000320089002E8B
:10014000222F0238022D028702330234023002329B
:10015000028902010001000100010001000100010B
:100160000001000100010001000100010001000187
:100170000000000000000000001E021F02200221FB
:100180000222022302240225022602890801002FEE
:100190000238022D02870233023402300232028911
:1001A000020100E300E2009100E1002C0090000158
:1001B0000001004C000100010001000100010001EC
:1001C0000001000100010001000100010001000127
:1001D000000100000000000000000014471A0008A1
:1001E00000150017001C0018000C0012001300047A
:1001F000001600074609000A000B000D000E460F0E
:100200000028001D221B28060019000500110010FF
:1002100000360037212A004600E000E30091242B3D
:10022000222C459044E600E700E4000100010001B3
:10023000000100407E00000000000000001E001FC2
:100240000020002100220023002400250026002792
:100250000023021F0238002D002D02330033022F2D
:1002600000300089003545350038022E002D022E61
:100270000225022F023002310201000100010001BB
:100280000001000100010001000100010001000166
:100290000001000100010000000000000000001E3D
:1002A0000234022002210222022402340026022704
:1002B0000231003502350038022E002D022E0225B3
:1002C000022F0230023102E100E300E2009100E17E
:1002D000002C009000010001004C00010001000111
:1002E0000001000100010001000100010001000106
:1002F00000010001000100010000000000000000FA
:100300000029002B00000000000000000000005247
:100310000000000000E000010038021E02000000A2
:1003200000500051004F000000E100E300E20091A6
:1003300000010000009000000000004C00010001DE
:1003400000010001000100010001000100010001A5
:100350000001000100010001000100000000000098
:1003600000000000002B00000000003A003B003CB1
:10037000003D003E003F0000000000000000004083
:100380000041004200430044004500E1000000003D
:100390000000000100010001000000285229520164
:1003A0000001000100010001000100010001000145
:1003B0000001000100010001000100010000000037
:1003C0000000000000207821782378257827780025
:1003D0000000000000405243522B782C782D782EDC
:1003E000782F780000000000000000000030783115
:1003F00078327800000000007C000000000000005F
:1004000000010001000100010001000100010001E4
:1004100000010001000100010001000100010000D5
:10042000000000000000001E0F0500047F3F1F6455
:100430003214643214783C1E1E140A052223252629
:1004400028292A2C2D2F3032333536383A3B3D3E81
:100450004042434547494A4C4E5051535557595ACB
:100460005C5E6062646668696B6D6F7173757779E5
:100470007B7D7F81838587898A8C8E9092949698E4
:100480009A9C9E9FA1A3A5A7A8AAACAEAFB1B3B4F6
:10049000B6B8B9BBBCBEBFC1C2C3C5C6C7C9CACB4B
:1004A000CCCDCED0D1D2D2D3D4D5D6D7D7D8D9D916
:1004B000DADADBDBDBDCDCDCDCDCDDDDDDDDDCDC7F
:1004C000DCDCDCDBDBDBDADAD9D9D8D7D7D6D5D49C
:1004D000D3D2D2D1D0CECDCCCBCAC9C7C6C5C3C268
:1004E000C1BFBEBCBBB9B8B6B4B3B1AFAEACAAA8BD
:1004F000A7A5A3A19F9E9C9A98969492908E8C8A71
:1005000089878583817F7D7B79777573716F6D6B4B
:100510006968666462605E5C5A5957555351504E23
:100520004C4A4947454342403E3D3B3A38363533D5
:1005300032302F2D2C2A292826252322FFAA7F5549
:100540004000010101010101010101020202020258
:10055000020202020303030303030303040404046B
:100560000404040505050505060606060607070733
:10057000070708080808090909090A0A0A0B0B0BEA
:100580000C0C0C0D0D0D0E0E0E0F0F0F1010111187
:10059000111212131314141515161617171818190B
:1005A000191A1A1B1B1C1D1D1E1E1F202021222272
:1005B000232424252626272829292A2B2C2D2D2EB5
:1005C0002F30313232333435363738393A3B3C3DCF
:1005D0003E3F404142434445464748494A4C4D4EC0
:1005E0004F50515354555658595A5B5D5E5F616286
:1005F00064656668696B6C6D6F7072737577787A15
:100600007B7D7E8082838587888A8C8E8F9193956F
:1006100096989A9C9EA0A2A3A5A7A9ABADAFB1B393
:10062000B5B7BABCBEC0C2C4C6C9CBCDCFD1D4D673
:10063000D8DBDDDFE2E4E7E9EBEEF0F3F5F8FAFD15
:10064000FF00000000000000002A2B28000000002E
:100650000000000000000000000000002900000071
:10066000002C1E3420212224342627252E362D3717
:1006700038271E1F202122232425263333362E37E8
:10068000381F0405060708090A0B0C0D0E0F101180
:1006900012131415161718191A1B1C1D2F3130238D
:1006A0002D350405060708090A0B0C0D0E0F101155
:1006B00012131415161718191A1B1C1D2F3130355B
:1006C0004C000000000000000000000000000000DE
:1006D000000000000000000000000000000000001A
:1006E00000000000007E0F00D4FFFFFFC7000000E5
:1006F000781203520061006400690061006C0065BB
:1007000000780000001E03740061006B006100733C
:10071000006800690063006F006D00700061006E8A
:1007200000790000000403090409023B00020100F3
:10073000A0FA0904000001030101000921110100D0
:10074000012244000705810308000109040100019A
:1007500003000000092111010001227B000705822E
:100760000320000112010002000000086374190058
:1007700001000102000105010902A1018502090130
:10078000A100050919012908150025019508750121
:1007900081020501093009311581257F950275080F
:1007A000810609381581257F950175088106050C9C
:1007B0000A38021581257F950175088106C0C0059C
:1007C000010980A101850319012AB700150126B787
:1007D00000950175108100C0050C0901A101850477
:1007E00019012AA002150126A002950175108100A9
:1007F000C005010906A101050719E029E715002533
:100800000195087501810295017508810105071997
:100810000029FF150026FF009506750881000508D0
:10082000190129051500250195057501910295010C
:1008300075039101C00011241FBECFEFDAE0DEBFC7
:10084000CDBF11E0A0E0B1E0E8E1F4E602C0059020
:100850000D92AA3EB107D9F723E0AAEEB1E001C09C
:100860001D92A335B207E1F70E9404140C94A43141
:100870000C940000FB0180349E4769F4858181114E
:1008800002C080E0089560E08CEA90E00E94392385
:100890000E94F71CF6CF81E00895A1E1B0E0E3E506
:1008A000F4E00C94513089E0EEE2F1E0DE011196C3
:1008B00001900D928A95E1F724E630E049E050E09E
:1008C000BE016F5F7F4F84E10E946C27892B51F43A
:1008D00024E630E041E050E0BE01665F7F4F84E1F6
:1008E0000E94B7276196E2E00C946D308930B8F42D
:1008F0006730A8F4473098F4E42FF0E097E0699F60
:10090000E00DF11D112491E3899FE00DF11D1124EB
:10091000EE0FFF1FEB54FF4F85919491089581E0F6
:1009200090E008950E947604089581E008950E9461
:100930009504089581E008950E943A040895089569
:100940000E949F040895A6E0B0E0E9EAF4E00C9468
:10095000503049835A839E833091F10189819A8175
:1009600031111AC03E81332399F0222389F00E946D
:10097000D70A182F682F89819A810E94B30A69814A
:100980007A81812F0E94B9112696E3E00C946C3095
:100990000E94C50A182FF3CF0E94D70A69817A8175
:1009A000F1CFFC01262F40815181628173818481C6
:1009B00095810E94A3040895CF93DF93D82FC92F68
:1009C00061E00E94D1046D2F7C2F0E949704DF917B
:1009D000CF910895CF93DF93D82FC92F60E00E9465
:1009E000D1046D2F7C2F0E94A004DF91CF91089538
:1009F00081E008950E94F8040895CF93C82F0E94C3
:100A000085098C2F0E94FA042FEF84E39CE021508B
:100A100080409040E1F700C00000CF91089581E050
:100A20000E94FD040E947B26089580E00E94FD0440
:100A30000E948C2608950F931F93CF93DF938C0110
:100A400061E00E94D104EC01F801858181110E94CE
:100A5000FB1DB801CE010E949C048823E1F1B8017E
:100A6000CE010E9409248823B1F1B801CE010E9471
:100A7000081F882381F1B801CE010E94DD1E882362
:100A800051F1B801CE010E941B1E882321F1F8010B
:100A90008581882381F0CA35FCE7DF0739F178F4D6
:100AA000C130ECE7DE07F9F0C330FCE7DF07C9F03F
:100AB000C115DC4771F0C8010E949A040DC0CB3506
:100AC000ECE7DE07B1F0CC35DC47A9F70E94D90E80
:100AD000F2CF0E940F0580E0DF91CF911F910F911F
:100AE00008950E94EB0E0E941505F5CF0E94E30EBB
:100AF000E2CF0E94E70EDFCF0E947C250E94A9056D
:100B00000E945A1C0E94B31408950E94AD050E94D1
:100B1000501D0E9481250895089581E0089508954B
:100B2000CF93DF93D82F0E948D05C82F882319F00B
:100B30008D2F0E948F058C2FDF91CF9108950895FE
:100B4000CF93C82F0E948C058C2F0E949005CF91C7
:100B5000089580E00E94A00508950E944F240E94FD
:100B6000A0050895CF930E944F24C82F8091EC01D7
:100B70008C1779F0C093EC010E940B266093ED0175
:100B80007093EE018093EF019093F0018C2F0E94FF
:100B9000A005CF910895ADE0B0E0E1EDF5E00C9453
:100BA0005130488759876A877B878C879D87911149
:100BB0000E94160E1F8286E0FE013896DE01119615
:100BC00001900D928A95E1F78D8181110DC02981E7
:100BD0003A814B815C816D817E818F810E945C0DA9
:100BE0002D96E2E00C946D30CE0101960E94DC045B
:100BF0008111EDCFF5CFFC018481813021F480811A
:100C000091810E94090B0895CF93DF93C82FD62FAF
:100C1000662381F00E9476208C2F90E09C01215D5C
:100C200031092830310548F46D2F0E942B15DF91D2
:100C3000CF9108950E94D420EFCF0E944C21F7CF8E
:100C4000CF93C82F8823C9F08238C9F40E945C244E
:100C500081FD13C089E30E9416250E94870E2FEFA5
:100C600037EE83E0215030408040E1F700C00000C3
:100C700089E30E941E250E94870ECF910895833834
:100C8000A1F40E945C2480FDF8CF83E50E94162524
:100C90000E94870E9FEF21EE34E0915020403040BB
:100CA000E1F700C0000083E5E4CF8438A1F40E949E
:100CB0005C2482FDE2CF87E40E9416250E94870E05
:100CC0008FEF91EE24E0815090402040E1F700C08A
:100CD000000087E4CECF8CEF8C0F813A70F48C2F1C
:100CE0000E94D924882329F08C2F0E941E250E945F
:100CF000870E8C2F0E941625BECF80E28C0F883085
:100D000048F4C77081E001C0880FCA95EAF70E94D5
:100D1000F70DB1CF8BE58C0F833038F42C2F245294
:100D2000330BC9010E947924A8CFE8E5EC0FEB3121
:100D300050F4F0E0EE0FFF1FE85CFE4F80819181E0
:100D40000E949F249ACF83E38C0F833108F095CFC4
:100D500061E08C2F0E94040690CF882309F456C0CE
:100D6000823879F40E945C2481FF50C089E30E949C
:100D700016250E94870E89E30E941E250E94870E79
:100D80000895833859F40E945C2480FF3FC083E5B6
:100D90000E9416250E94870E83E5EECF843859F411
:100DA0000E945C2482FF32C087E40E9416250E94C4
:100DB000870E87E4E1CF9CEF980F913AE8F290E23A
:100DC000980F983050F4877091E001C0990F8A9580
:100DD000EAF7892F0E94FD0DD1CF9BE5980F933044
:100DE00028F480E090E00E947924089598E5980F17
:100DF0009B3128F480E090E00E949F24089593E3C3
:100E0000980F933118F460E00E94040608951F9330
:100E1000CF93DF93182FEB010E942006209739F41F
:100E2000812F0E94AD06DF91CF911F9108958FE928
:100E30009FE00197F1F700C000002197EFCF60E03D
:100E400070E0893311F460E570E00E9407070895AF
:100E5000882321F00E94F70D0E94870E08958823B1
:100E600021F00E94FD0D0E94870E0895A0E0B0E0E1
:100E7000ECE3F7E00C944B306C01D62FC72FFC014C
:100E80001581068102950F700E94EC0DE82E8823D3
:100E9000F9F0E12E1123E1F08C2F807F803461F096
:100EA00080E28D0F8830F0F08C2F807E803221F42C
:100EB000D230C0F00023B1F08091070382FF12C04E
:100EC00082E00E94AC0E0E94EC0D91E0E82EE92633
:100ED000EC2FE295EF70C03CB0F5F0E0EA55FE4C27
:100EE0000C940A30E12CF4CF0C2F0F70C03110F0AD
:100EF0000295007F112399F0002359F080E28D0FB5
:100F0000883010F0D11107C0802F0E94F70D0E9489
:100F1000870E8D2F51C0802F0E94080EF8CF8D2F85
:100F20000E94AD06002379F080E28D0F883010F02A
:100F3000D11104C0802F0E94FD0D03C0802F0E949C
:100F40000E0E0E94870EEE2089F00E94E80D80FDB3
:100F50000DC0F60115820E94E20D0E94100AC60122
:100F60000E944C090E94E20D0E94200ACDB7DEB714
:100F7000E8E00C946730FC2FFF70FF2EC07FC0327A
:100F800019F0F29480EFF822DD2341F0D130D1F155
:100F9000112309F444C00023F1F0BBCF8091070373
:100FA00082FD15C0112359F0FF2029F08F2D0E94DA
:100FB000F70D0E94870E80E00E942006C4CF80E0DB
:100FC0000E94AD06FF2009F4BECF8F2DB4CF1123B0
:100FD00069F0011104C08F2D0E942807B4CF0130A1
:100FE00009F0B1CF8F2D0E942E0EADCF0111ABCFE6
:100FF0008F2D0E942F078F2D0E943A0E8F2D0E9459
:101000001D0EA1CF112321F0063008F09CCFE3CFB5
:10101000053008F098CF8F2D0E942F0794CF002322
:10102000D1F3D93349F42FEF87EE93E0215080407C
:101030009040E1F700C000008D2F0E94AD0683CFE5
:101040008C2F869586958370882369F0813009F00E
:101050007ACF8D2F9C2F9370111102C080E090E009
:101060000E949F2470CF8D2F9C2F9370111102C06E
:1010700080E090E00E94792466CF612F8D2F0E943E
:10108000040661CF8C2F8370811139C0111129C0E2
:101090004D2F429546954770440F440F2D2F2F70CA
:1010A00030E0042E02C0220F331F0A94E2F780E0E2
:1010B00090E0D4FF09C08FE090E002C0880F991F34
:1010C0004A95E2F780959095C695C695C370822B98
:1010D000932BC23071F0C33079F0C13039F00E94E7
:1010E000E0090E944F240E94A0052DCF0E94D7093D
:1010F000F8CF0E94E909F5CF0E94D409F2CF11235D
:1011000061F1C0FFEECF4D2F429546954770440FD9
:10111000440F2D2F2F7030E0042E02C0220F331FFA
:101120000A94E2F780E090E0D4FF09C08FE090E0FD
:1011300002C0880F991F4A95E2F780959095C69551
:10114000C695C370822B932BC23069F0C33071F007
:10115000C13031F00E944B0AC4CF823010F2D3CF9D
:101160000E94420ABECF0E94540ABBCF0E94F809D7
:10117000B8CFCF70112339F08C2F0E94100A8D2F19
:101180000E942807AECF8D2F0E942F078C2F0E9420
:10119000200AA7CFD23F31F170F4D03FB9F0D13F50
:1011A000B1F1112309F44EC0002309F448C08D2F7A
:1011B0000E94200696CFD33FE1F0D43F21F11111D8
:1011C000F3CF01114DC08C2F8F71E1CF112341F06E
:1011D000053008F086CF8C2F8F710E94320A81CFA4
:1011E0000530F7CF8C2F8F711111D1CF0E94100ACB
:1011F00078CF112329F08C2F8F710E94040A71CFB0
:101200000E94FF096ECF8091070382FD06C08C2FDC
:101210008F71112309F4BBCFE9CF112331F063E0C3
:101220008C2F8F710E948E0E5CCF81E00E94AC0EDD
:10123000023008F456CF82E00E94AC0E52CF8C2FC1
:101240008F71D4CF002309F4BECFD93349F4EFEF27
:10125000F7EE23E0E150F0402040E1F700C000004D
:101260008D2F0E94AD063DCF0F931F93CF93DF9339
:10127000EC01688179818D810E94160B8C010E949E
:101280005D0A0E94D309B801CE010E943607DF91A2
:10129000CF911F910F910895CF93DF93EC018C8133
:1012A000882399F0CE010E941B05811111C00E9474
:1012B000EC0D882351F08D81882339F0809107034C
:1012C00082FF03C082E00E94AC0EDF91CF910895AF
:1012D000CE010E943409CE010E94EA04F6CF80E0DC
:1012E00090E00E94792480E090E00E949F240E9478
:1012F000160E0E94870E0E9469210E944C210895BB
:101300000E9426250E946F0908950E94050E0E94E2
:1013100080090895282F92959F70963091F060F47F
:10132000925F9F70923030F481E0203F79F030F48A
:10133000283E30F080E008959A5FF3CF243FD1F744
:10134000089581E0283EE0F3213FF9CF0895FC01A4
:101350008481882339F0808191810E94090B0E9449
:101360008A09089580E00895A6E0B0E0EAEBF9E08C
:101370000C9451302696E2E00C946D30A7E0B0E07A
:10138000E4ECF9E00C9451302796E2E00C946D30D7
:1013900008950E94C80908950E94C90990931102F6
:1013A00080931002089508950E94CC090895209119
:1013B000100230911102822B932B0E94CC090895C8
:1013C0002091100230911102822393230E94CC09B4
:1013D00008952091100230911102822793270E94D4
:1013E000CC0908950E94C80908950E94F209089541
:1013F0000E94F50990930F0280930E02089580E0F9
:1014000090E00E94F809089521E030E0A90102C0AF
:10141000440F551F8A95E2F7CA010E94F809089502
:1014200021E030E002C0220F331F8A95E2F780915D
:101430000E0290910F02822B932B0E94F8090895BF
:1014400021E030E002C0220F331F8A95E2F7209599
:10145000309580910E0290910F02822393230E9477
:10146000F809089521E030E002C0220F331F8A9569
:10147000E2F780910E0290910F02822793270E943B
:10148000F809089520910E0230910F02822B932BC0
:101490000E94F809089520910E0230910F028223D4
:1014A00093230E94F809089520910E0230910F02B3
:1014B000822793270E94F809089508959B01677079
:1014C00091E001C0990F6A95EAF763E03695279598
:1014D0006A95E1F7220F331F220F331FFA01E20F43
:1014E000F31F40E050E0682F70E08191DF01119719
:1014F0009B01042E02C0369527950A94E2F72170CD
:1015000021952827292328272C934F5F5F4F4430AC
:10151000510559F708959C01982F977083E03695EF
:1015200027958A95E1F7220F331F220F331FFB0106
:10153000E20FF31F40E050E080E0219130E0092EFF
:1015400002C0369527950A94E2F721703327042EBE
:1015500001C0220F0A94EAF7822B4F5F5F4F44309D
:10156000510559F70895282F862F973068F42730B2
:1015700058F4622F70E027E0929F600D711D1124D6
:1015800042EF51E00E945E0A0895292F973068F4D7
:10159000873058F490E062EF71E037E0239F800DD0
:1015A000911D11240E948B0A089580E00895A0E007
:1015B000B0E0EDEDFAE00C944A308C01E0900E02C0
:1015C000F0900F028091100290911102E82AF92AFE
:1015D000CFE0D0E0CC24C394D12CC6010C2E02C0A5
:1015E000880F991F0A94E2F78E219F21892B49F4D5
:1015F000219798F7B12C8B2DCDB7DEB7E9E00C948D
:101600006630BC2EB8018C2F0E94C511019781F362
:10161000F2CFCF93DF93D82FC92F0E94D70A6D2F17
:101620007C2F0E94C511DF91CF9108951F93CF9316
:10163000DF93162FD72F9091F101992341F0862F38
:10164000972F0E94090BDF91CF911F910895882356
:1016500081F0862F972F0E94D70AC82F682F812FDD
:101660009D2F0E94B30A612F7D2F8C2F0E94C511E0
:10167000EACF862F972F0E94C50AC82FF4CF0F9369
:101680001F93CF93E0911202C7E0809113028E1353
:1016900004C0CF911F910F9108950E2F10E0CE9F9F
:1016A000F0011124EC5EFD4F208131814281538194
:1016B0006481758186810E94BE09F8013196E770C8
:1016C000E4CF20914C0230914D0240914E02509156
:1016D0004F026091500270915102809152020E941B
:1016E000BE09089580915202803178F480915102B0
:1016F000882359F0E09112022091130230914D029B
:1017000040914C0257E02E1301C008956E2F70E0F7
:101710005E9FF0011124DF01AC5EBD4F14968C91E9
:101720001497882361F111968C911197831327C028
:101730008C91841324C015968C91159781111FC02C
:1017400012968D919C91A0914E02B0914F028A1BEE
:101750009B0B883C910598F4809152028F708061B8
:1017600080935202E65EFD4F80818F70806180839E
:101770008CE492E00E944C090E943F0B0895FB010B
:101780003196E770C0CFE09112029091130227E0EA
:10179000E91302C080E00895AE2FB0E02E9FF00163
:1017A0001124EC5EFD4F3181361306C030813813B1
:1017B00003C03581341304C0FD013196E770E8CFD2
:1017C00081E008958F929F92AF92BF92DF92EF9245
:1017D000FF920F931F93CF93DF93CDB7DEB72D9773
:1017E0000FB6F894DEBF0FBECDBF8C0186E0F801C6
:1017F000DE01189601900D928A95E1F7F801E080DC
:10180000F580A280B38084819CE4892E92E0992E99
:101810009091500291111BC0882309F4FCC0FF2055
:1018200009F43DC1C8010E94A709882309F437C102
:1018300087E0F801D40101900D928A95E1F7C40187
:101840000E94FB050E94720B0E94610BE4C0D090C5
:10185000510220914E0230914F02A501421B530BC1
:10186000DD2009F4DBC0483C510508F0A6C0882300
:1018700009F4D1C090914D02918080915202803143
:1018800008F06BC0991228C090914C029E1124C0A0
:10189000F1105DC08F708061809352020E94610BD5
:1018A0008CE492E00E944C0980915202F8018683F8
:1018B000F12C8F2D2D960FB6F894DEBF0FBECDBF45
:1018C000DF91CF911F910F91FF90EF90DF90BF902C
:1018D000AF909F908F900895F11039C040E0692D2E
:1018E0008E2D0E94C30B40E0692D8E2D0E94C30BEC
:1018F000F82E8111DDCF888599850E94090B292F4B
:1019000022952F70903450F49F70223080F09923EC
:1019100099F0F8019681903178F4CBCF2A5F2F703F
:10192000223078F0C8010E944C09FD2CC2CF9923C7
:1019300019F0882309F4BDCF805E883008F4B9CF50
:10194000F1CF803F08F4B5CF815F8230F7CF80912F
:101950005202816080935202ABCF991207C09091DE
:101960004C029E1103C0FF2009F479C0C8010E94F7
:10197000A709882309F493C0FF2009F490C080913F
:101980005202803288F020914C0230914D023A830D
:101990002983BC82AB82909150029D831E828F83EB
:1019A000CE0101960E944C0987E0F801ACE4B2E058
:1019B00001900D928A95E1F745CF909152029031B6
:1019C000A0F4488559856A857B858C859D850E9414
:1019D000B4098CE492E00E944C0987E0F401119272
:1019E0008A95E9F70E94610B63CF8823A1F02091CB
:1019F0004D0281812813BACF80914C028E11B6CF4F
:101A0000F110B4CF9683C8010E944C0987E0F4011D
:101A100011928A95E9F7FF24F3944BCF483C510586
:101A200008F041C08823B9F3FF20C9F190914D021D
:101A3000818198132AC080914C028E1126C080911A
:101A4000520280FD19C08031B8F08683807F803FCC
:101A500039F08681982F907F905F8F70892B8683D5
:101A6000C8010E944C0987E0F801ACE4B2E00190A3
:101A70000D928A95E1F7E8CE87E0F801ACE4B2E098
:101A800001900D928A95E1F7C6CFC8010E94A7097F
:101A900081118ACF80915202816080935202C801E5
:101AA0000E944C09B8CF488559856A857B858C850D
:101AB0009D850E94B40991CFAEE0B0E0E2E6FDE082
:101AC0000C945030288739874A875B876C877D87DD
:101AD0008E87CE0108960E94E20B8823B1F06C85B8
:101AE000662341F0288539854A855B857D858E850D
:101AF0000E94BE0917E0809112029091130289138F
:101B00003EC02E96E3E00C946C3087E0FE013896E0
:101B1000DE01119601900D928A95E1F72091130252
:101B2000409112028C85882329F330E0C901019687
:101B30008770992750E08417950799F097E0929F56
:101B4000D001939FB00D1124AC5EBD4FFE013196C4
:101B500001900D929A95E1F7809313020E943F0B3A
:101B6000C9CF0E948509109213021092120287E0D9
:101B7000ECE4F2E0DF011D928A95E9F7BBCF189FF4
:101B8000C00111248C5E9D4F0E94E20B882309F452
:101B9000B8CFE09112021E9FF0011124EC5EFD4FC0
:101BA00020813181428153816481758186810E94C7
:101BB000BE098091120290E0019687709927809368
:101BC000120299CF80915B0286958695869508953D
:101BD00080915B028770089590915B02977081E01D
:101BE000911101C080E0089580916702089590915D
:101BF0006702982B909367020895982F9095809193
:101C000067028923809367020895109267020895FE
:101C100090916602982B909366020895982F909564
:101C2000809166028923809366020895109266026D
:101C3000089508950E94190E089590915C02292F2D
:101C40002823222331F08095892380935C020E940F
:101C50001A0E089508950E942A0E089590915D022B
:101C6000292F2823281729F0982B90935D020E9492
:101C70002B0E089590915D02292F2823222331F005
:101C80008095892380935D020E942B0E0895809198
:101C90005D02882329F010925D0280E00E942B0EE5
:101CA00008950F931F93CF93DF9300910401109138
:101CB0000501C091670280916602C82BD0915D0238
:101CC000DD2331F00E94C52481110E94470ECD2BE7
:101CD000F801C083C0910401D091050148E050E0B3
:101CE00063E572E0CE010E941731892B59F088E03C
:101CF000FE01A3E5B2E001900D928A95E1F7CE01D5
:101D00000E945F24DF91CF911F910F9108950E944F
:101D1000510E089508950E948A0E08959091070328
:101D200092FF11C098E0899F90011124622B60936B
:101D30005B020E94100A80915B02869586958695CB
:101D40000E948B0E08950E94100A089510925B0263
:101D500080E00E948B0E089590915B02809589230C
:101D600080935B02282F277021110DC0891759F02D
:101D70009091070392FF07C08695869586950E94ED
:101D8000200A0E94A60E08959091070392FB222735
:101D900020F9281769F080FB92F99093070380914E
:101DA0000603909107030E940C0F82E00E94AC0E84
:101DB00008958091070382FB882780F991E08927A5
:101DC0000E94C40E089581E00E94C40E089580E030
:101DD0000E94C40E08956FEF7FEF80E090E00E94B4
:101DE0006F31089580E090E00E943B319C0181E0DA
:101DF000253E3E4F09F080E0089582E090E00E9489
:101E00002D31089583E090E00E942D31089584E003
:101E100090E00E943B310895BC0184E090E00E9474
:101E20006F310895AB01BC018FE090E00E946331F7
:101E30000895AB01BC0183E190E00E9463310895F5
:101E400060E070E0CB010E94190F089560E070E03F
:101E5000CB010E94120F0E94200F0895A8E0B0E06D
:101E6000E4E3FFE00C94513065EE7EEF80E090E01B
:101E70000E946F3160E082E090E00E94513181E089
:101E800090E0909311028093100261E083E090E073
:101E90000E94513160E074E184E090E00E946F3173
:101EA00060E086E090E00E94513160E087E090E0E1
:101EB0000E94513140E050E0BA0188E090E00E9479
:101EC000633160E083E290E00E94513160E08CE099
:101ED00090E00E94513160E08DE090E00E9451312D
:101EE00019821A821B821C821D821E821F82188602
:101EF00048E050E067E170E0CE0101960E94413178
:101F000040E050E0BA018FE190E00E9463310E940E
:101F1000260F2896E2E00C946D300E942E0F089553
:101F2000682F8EE090E00E9451310895A6E0B0E065
:101F3000ECE9FFE00C944F300E94FF258C0180916A
:101F40006802909169028017910779F019821A82CC
:101F50000E94FF25BC0149815A8180E090E00E94E7
:101F6000CB0510936902009368022696E4E00C9476
:101F70006B300E940B266093790270937A028093F3
:101F80007B0290937C02609375027093760280933B
:101F900077029093780208950E940B26609379024D
:101FA00070937A0280937B0290937C02609371021B
:101FB000709372028093730290937402089508954F
:101FC00008950E94DF0F089508950E94E40F089578
:101FD0008DEB92E10E9419140E94E00F0E94E10F24
:101FE000089581E008950E94F10F08950E94F10F75
:101FF0000895089508950E94F90F0E94FA0F089518
:102000000E94F20E811102C00E948D0F0E94FD0EEF
:1020100080937D020E94070F90930703809306032D
:102020000E94DA1E0E94020F90E00E94D409809163
:102030000E0290910F020E94F50908950E94F62564
:102040000E946D130E9400100E949F050E94051DB2
:102050000E945E140E94E50F0895A6E0B0E0E3E35D
:10206000F0E10C9448300E94F30F811111C00E94DE
:10207000960F0E94FC1D0E94B31481110E94CC0F88
:102080000E94A5210E94B2052696EBE00C946430D4
:102090000E9483138AE6A82E82E0B82E750110E014
:1020A000F70101917F01812F0E94C7121F5F173036
:1020B00009F443C00817A1F380917D0281FD0E94BD
:1020C000CD120E94F60FC82E00E099249394802F21
:1020D0000E94C712182FF50191915F01891739F1FC
:1020E000D82ED926F12CEE24E3948D2D8E21882331
:1020F000B1F0CC20A1F0F9820A830E94FF259C83D5
:102100008B839D8291E0812F8E21811101C090E00F
:1021100049815A816B817C818D810E94CB05F3942A
:10212000EE0CF7E0FF12E1CFF501319710830F5F5E
:10213000073069F60E94B90F9CCF0813BDCF97CF27
:102140001F93CF93DF930E94CA11EC01811522E502
:10215000920708F053C0811540E5940708F0DDC0F0
:10216000803E9105F8F48D3C910508F0AEC0883AA8
:10217000910580F4853A910508F099C08130910568
:1021800021F00497813A910550F4CE01DF91CF916F
:102190001F910895885A91094B9708F48BC0C0E0AD
:1021A000D0E0F3CF811550E49507F8F4C11580E233
:1021B000D80708F0CBC0C83ED10538F3CE019A95B8
:1021C00081159F4160F78D2F0E946E12182FCE014E
:1021D00099270E94CA11212F30E0322F2227E901CE
:1021E000CC27DF71C82BD92BD0CF99270E94CA11D9
:1021F000CC27DF70C82BD92BD06AC7CF803842E5F7
:102200009407C8F5803652E5950708F067C0C034DA
:1022100082E5D807B0F08C2F86958695877020E2EE
:10222000829FC0011124C37021E030E0A90102C0E7
:10223000440F551FCA95E2F7EA01C82BD92BDC6879
:10224000A4CFC03252E5D50708F041C08C2F869547
:10225000869520E2829FC0011124C37021E030E006
:10226000A90102C0440F551FCA95E2F7EA01C82B25
:10227000D92BDD688ACF803C52E5950760F48F71D9
:10228000C03AD24508F03FC090E0982F8827EC0173
:10229000C46FD06A7ACF805C9245809708F07FCF78
:1022A000DC2FCC27CC27DF71C06FD06A6ECFA4970C
:1022B000D0646BCFC85AD0E0CC0FDD1FC259DE4FBF
:1022C0000990D881C02DD46460CFD0655ECFCF7126
:1022D000D0E0DC2FCC27C16FD06A57CF869586958A
:1022E000877020E2829FC0011124C37021E030E09A
:1022F000A90102C0440F551FCA95E2F7EA01C82B95
:10230000D92BDA6842CF0E946E12C82FD0E0DC2FA2
:10231000CC27CC27DF71D06238CF8F710E946E122C
:1023200065E0D695C7956A95E1F7CF70D0E0DC2FD0
:10233000CC27282F30E084FF05C054E0220F331F44
:102340005A95E1F7C22BD32BD0691FCF8D2F8F71F8
:102350000E946E12182FCE0199270E94CA11212FB8
:1023600030E0322F222722273F71282B392BE90119
:10237000D2CF462F672F773028F4473018F40E94C9
:102380009204089580E090E008950E94B9110E949F
:10239000A0100895803E9105D1F1C8F481339105D4
:1023A00009F47FC048F48932910509F46FC08A327C
:1023B000910509F47DC0089589339105E1F08238D3
:1023C0009105C9F08533910509F45BC00895843EF9
:1023D0009105D1F148F4823E910531F1833E91059A
:1023E00041F181EE90E00895863E9105C1F1873E6E
:1023F0009105E1F10895209106032370211165C034
:102400002091070323FF14C089E290E008952091F2
:10241000060320FD43C03091070330FF09C024FFAD
:102420004EC080E090E008952091060322FDF7CF92
:1024300008952091060322FD45C03091070330FD29
:1024400044C024FFF5CFEDCF2091070321FFF0CF4B
:102450008091060384FDE5CF87EE90E008952091FA
:10246000060323FFE5CF24FDDCCFF6CF2091060342
:1024700023FD2EC03091070331FFE3CF84EE90E0BF
:1024800008952091060325FFD3CFBECF20910603E8
:1024900025FD21C02091070323FFCACF89E390E0E7
:1024A00008952091060326FFC3CF8AE290E00895A5
:1024B0002091060326FFBCCF81E390E0089583EED0
:1024C00090E0089582EE90E0089580EE90E0089507
:1024D00086EE90E0089585E390E0AACF9091060300
:1024E00092FF10C041E0282F2471243009F040E011
:1024F00031E0282F2871283009F030E0431711F01F
:102500002CE0822793FF10C041E0282F2471243152
:1025100009F040E031E0282F2871283109F030E03F
:10252000431711F02CE082273091070330FF10C0D1
:1025300051E0282F2171213009F050E041E0282F8F
:102540002871283009F040E0541711F029E0822763
:1025500031FF10C041E0282F2171213109F040E006
:1025600031E0282F2871283109F030E0431711F0AD
:1025700029E0822794FD877E089580E008950895DC
:102580000E94BF12089508950E94C3120895E82F73
:10259000F0E0E15FFC4F80810895089580EA8A951C
:1025A000F1F7089500C008950E94CE120895F8949E
:1025B000E82FE295EF70F0E041A18F7021E030E06C
:1025C000B90102C0660F771F8A95E2F7CB01962FFB
:1025D0009095942391A392A1892B82A37894089536
:1025E0000F931F93CF93DF93CBEAD1E089918F3F75
:1025F00011F00E94D71281E0C23BD807B9F7C4EAB4
:10260000D1E00BEA11E089918F3F11F00E94D712BF
:102610000C171D07C1F7DF91CF911F910F910895FE
:10262000A0E0B0E0E6E1F3E10C944B30EC01D62EF3
:10263000062F10E0C80185559E4F7C01FC0180816A
:102640008F3F09F445C0F894E82FE295EF70F0E071
:1026500091A18F7021E030E001C0220F8A95EAF746
:10266000892F822B81A382A12095282322A37894ED
:102670000E94D212E4EAF1E091E0C12C81918F3FF7
:1026800081F0A82FA295AF70A05EB0E02C9130E051
:102690008F7002C0359527958A95E2F72170892FB2
:1026A000211180E0C82A990F81E0EB3AF80731F751
:1026B000F70180818F3F11F00E94D71261E0C110B5
:1026C00001C060E08D2D0E94D412C00FD11FC882BE
:1026D000CDB7DEB7E8E00C9467300E94F01287E0D7
:1026E000EFE0F3E0DF01982F1D929A95E9F7E8E01B
:1026F000F3E0DF011D928A95E9F787E00E94C1139C
:102700000E94C0120895A7E0B0E0E9E8F3E10C945C
:102710004E301A821982FE01339685E0DF011D9248
:102720008A95E9F7F12C8E010F5F1F4F6F2DC801BD
:102730000E941013F394B7E0FB12F8CF47E050E08B
:10274000B80188E093E00E94173121E0892B81F4E1
:1027500020E047E06FE073E088E093E00E94C2135E
:10276000182F0E94C412812F2796E5E00C946A303E
:1027700087E0F801A8E0B3E001900D928A95E1F7B7
:10278000E8CF0895A0E0B0E0E8ECF3E10C944B3022
:10279000D82EE92EF62ED72F042FC22F222379F020
:1027A00081E0809380020E94FF2590937F028093B6
:1027B0007E0280E0CDB7DEB7E8E00C946730C090D1
:1027C0008002CC20B1F380917E0290917F020E9422
:1027D0002826059770F310E0A8016D2D7E2D8F2D12
:1027E0009D2F0E941731892B41F0A8016D2D7E2D60
:1027F0008F2D9D2F0E942431CC2D109280028C2F82
:10280000D9CF0E942D1008950E9498250E94662A13
:102810000E94E80F0E94802A0E941E100E948D2AAA
:102820000E94922A0E9401140E94AC2A0E94FB0F6F
:10283000F7CF9093EB018093EA0108950895ACE0FF
:10284000B0E0E5E2F4E10C9451304F83588769879A
:102850007A878B879C8786E0FE013796DE0111968A
:1028600001900D928A95E1F729813A814B815C8133
:102870006D817E8180E090E02C96E2E00C946D30DA
:10288000ACE0B0E0E6E4F4E10C9451300E941F1497
:1028900080E090E02C96E2E00C946D3021E030E096
:1028A000F90102C0EE0FFF1F4A95E2F7AF01662360
:1028B00011F08E2B0895409584230895E091B20184
:1028C000F091B30109950E944D040E941E140895D1
:1028D000CF9365E872E08CE892E00E943125C82F22
:1028E000882321F08CE892E00E946A2490918D0266
:1028F00086E0ECE8F2E0DF01282F1D922A95E9F747
:1029000090938D02A5E8B2E001900D928A95E1F7CF
:1029100081E0C11103C0911101C080E08170CF91AD
:102920000895ACE0B0E0E7E9F4E10C9451304F8356
:1029300058878B879C87719579876A8786E0FE0127
:102940003796DE01119601900D928A95E1F7298163
:102950003A814B815C816D817E8180E090E02C9694
:10296000E2E00C946D30AAE0B0E0E9EBF4E10C9405
:1029700051308091810290918202A0918302B091A6
:102980008402BC01CD010E9437266F837887898736
:102990009A87653071058105910508F45AC00E9437
:1029A0000B2660938102709382028093830290933E
:1029B0008402E091B401F091B50140918C025091F4
:1029C0008D0260918E0270918F02809190029091A1
:1029D00091020995F42FE52FCB01A9016F2F7E2FCE
:1029E0000E949114F42FE52FCB0120938C02309399
:1029F0008D02F0938E02E0938F0260939002909389
:102A00009102A9016F2F7E2F0E94401420938C0207
:102A100030938D0240938E0250938F026093900208
:102A2000709391020E94772180918D02832B809375
:102A30008D020E946814811109C080918B028170FF
:102A400010928B022A96E2E00C946D3081E090E0C7
:102A5000F6CF80E0F7CFAC01815D9109089748F48B
:102A6000415D80918D020E944E1480938D020E94E0
:102A700068140895FC0180819181803891053CF0B3
:102A80009C012F5731098FE73183208308958038C7
:102A90002FEF92072CF49C0121583F4F80E8F4CF90
:102AA00020E030E0F1CFA1E1B0E0E9E5F5E10C9400
:102AB0004E304C87888B998B152FF62E072FCE0121
:102AC000079625E0FC0111922A95E9F720919802DA
:102AD0002A3008F040C00E941416892B09F062C009
:102AE000109298028B8540E087FD54C060E0812FF2
:102AF0000E944E14182F20919602309197022115B2
:102B0000310509F040C041E06F8188850E942B1695
:102B10002091940230919502280F391F309395022D
:102B20002093940241E069858A850E942B162091AA
:102B3000920230919302280F391F30939302209311
:102B4000920284E992E00E943A15F82E82E992E01E
:102B50000E943A15082F1D87FE860F8786E0FE012A
:102B60003C96DE01119601900D928A95E1F729813C
:102B70003A814B815C816D817E8180E090E061963D
:102B8000E5E00C946A30215031093093970220938C
:102B90009602E1CF61E0812F0E944E14182F24E1AC
:102BA00030E0F3CF909198029F5F90939802D3CF3B
:102BB00080910601909107012DE7AC01249FC0018F
:102BC000259F900D112408959C0161E070E0893FDC
:102BD000910560F0EDE7F0E0BF010E94C02FA90170
:102BE000481B590BCA01BF010E94C02F6093060108
:102BF000709307010895A4E0B0E0E1E0F6E10C94E1
:102C00004F3089836A834B832C8304E610E024E0F1
:102C100030E0AE014F5F5F4F60E084E10E943228F8
:102C20002496E4E00C946B300F931F93AC0104E600
:102C300010E025E030E064E084E10E9484281F91E8
:102C40000F9108950E94EC2620E040E060E080E0D3
:102C50000E94FB15089550E0209106013091070174
:102C60006817D8F4861B849FB001859F700D1124CE
:102C7000869FA001879F500D1124429FC001439F52
:102C8000900D529F900D1124880F892F881F990B4A
:102C900091959195819591090895681B649FC00154
:102CA000659F900D1124689FA001699F500D11240C
:102CB000429FC001439F900D529F900D1124880F99
:102CC000892F881F990B91950895A0E0B0E0EBE65D
:102CD000F6E10C944930E82F71110DC0442321F026
:102CE000F0E0EF5BFA4F8491682F782FCDB7DEB715
:102CF000EAE00C946530262F30E0C72FD0E0F0E0FA
:102D0000442321F0EF5BFA4FE491F0E086E0829FEC
:102D10007001839FF00C11240FEF10E0C701B80180
:102D20000E94C02FAB01220F331F65E5649FC001D5
:102D3000659F900D1124281B390BC22ECC0CC20E9E
:102D4000C8018C1B9D0B8E9F90018F9F300D9E9F05
:102D5000300D1124832FCC9EB001CD9E700D112417
:102D6000672F77275801A61AB70AAE9ED001AF9EEB
:102D7000B00DBE9EB00D11247B2F5801AC18B108C8
:102D80006501CC9E5001CD9EB00CDC9EB00C112490
:102D9000AB2CBB240A191B090E9FE0010F9FD00D1D
:102DA0001E9FD00D11246E2F43305105C9F09CEFAA
:102DB000E91693E0F90650F44130510509F496CF35
:102DC0004230510589F07E2F6D2F90CF4430510550
:102DD00071F046305105B9F3632F8B2F7E2F86CFCC
:102DE0006B2F732F8E2F82CF732F8D2F7FCF7D2F41
:102DF000632FF8CF41E00E946516089508950E9460
:102E0000FA160895CF93DF93982F762F842FE90138
:102E1000692F0E94FF16798368838A83DF91CF919F
:102E2000089580911603843028F483708460809321
:102E3000160308958C3AE8F38370886AF8CF4F92AE
:102E40005F926F927F928F929F92AF92BF92CF923A
:102E5000DF92EF92FF920F9388E090E00E9435316D
:102E60002B013C0183E290E00E942D31282F30E0BD
:102E700040E050E060E070E080E090E000E20E941E
:102E8000783053014201C12CD12C760124293929F3
:102E90004A295B296C297D298E299F290F91FF9052
:102EA000EF90DF90CF90BF90AF909F908F907F90EA
:102EB0006F905F904F900895A0E0B0E0E2E6F7E1F8
:102EC0000C944B308901D42FC52F6B017C010E94DB
:102ED0001117A8016D2F7C2F88E090E00E946331CC
:102EE00098014D2F5C2FB601C70100E20E9493307C
:102EF000622F83E290E00E945131CDB7DEB7E8E067
:102F00000C946730E6E1F3E085E0808311828FEF77
:102F1000828383831482758125E030E04FEF5FEF79
:102F200060E0868197810E945C1708958091160366
:102F300080FF03C086958695089580E0089590915E
:102F40001A03933018F49F5F90931A03882391F02B
:102F500020911603309117034091180350911903E3
:102F600060911A0370911B0380911C0390911D03C3
:102F70000E945C17089581E00E949F170895909128
:102F80001A03992319F0915090931A03882391F012
:102F900020911603309117034091180350911903A3
:102FA00060911A0370911B0380911C0390911D0383
:102FB0000E945C17089581E00E94BF1708956091F8
:102FC0000C018091160380FF11C070E020910B016D
:102FD00030E0C901880F991F820F931FE091E7012C
:102FE000F091E801825E9C4F0995089580910D0152
:102FF00090910E01282F30E0F901EE0FFF1FE20F34
:10300000F31FE25EFC4F891700F7118210821282D3
:103010008F5F3396F8CF9091160390FF11C0909177
:103020000D0150910E01292F30E0F901EE0FFF1F25
:10303000E20FF31FE25EFC4F951718F00E94DF17B6
:1030400008958183608342839F5F3396F5CFA3E029
:10305000B0E0EDE2F8E10C9451309091160390FF4E
:103060000AC09E012F5F3F4F0E9402174B8169816A
:103070008A810E940B182396E2E00C946D30CF9366
:10308000DF93EC01EC81F0E0E45CFB4F4491E6E17E
:10309000F3E0628181810E9427188C818F5F8C838D
:1030A000DF91CF910895CF93DF93EC01E6E1F3E058
:1030B000438162818C810E9427188C818F5F8C8371
:1030C000DF91CF910895A3E0B0E0E9E6F8E10C9438
:1030D0004F308C018091990281110AC09E012F5FAF
:1030E0003F4F4FEF6FEF0E9402178A818093990242
:1030F000F8016481613049F06230D1F08091990229
:1031000040E0662331F040E015C06091990240E054
:1031100080E00E940B18F801848190E0019663E042
:1031200070E00E94D42F84832396E4E00C946B30EB
:103130004091990280E060E0ECCFA3E0B0E0E3EAE8
:10314000F8E10C944930F82ED62EE42EB22E909150
:10315000160390FF2FC0E92FE695E695AE2FB0E05D
:10316000A654BE4F8C918093E1029C7F943031F540
:103170009E012F5F3F4F8F2D0E9402174B81698167
:103180008A810E940B18F0921703D0921803E092E4
:103190001903BB2079F02091160360911A037091F6
:1031A0001B033F2D4D2D5E2D80911C0390911D031F
:1031B0000E945C172396EAE00C946530823019F483
:1031C000E0901903E0CF863019F4F0901703DBCFBD
:1031D0008930D9F38931B9F6E9518E2F8170A82E43
:1031E000E695F0E0E45CFA4FE491C12C0E2F10E07C
:1031F00060910F01C61618F00E94DF17C4CF2C2D66
:1032000030E0C09EC001C19E900D112470E00E946C
:10321000C02F8F2DA11013C0860F90910D01A90111
:10322000490F511D9A01220F331F240F351F225EB3
:103230003C4F4E2D6D2D0E940217C394D9CF861B93
:10324000ECCF282FE6E1F3E0818143816281885F42
:103250000E949D18089581E00E9421190895282F49
:10326000E6E1F3E081814381628188500E949D18EC
:10327000089581E00E942F190895282FE6E1F3E0D8
:10328000628138E0630F08F46FEF438181810E940F
:103290009D18089581E00E943D190895282FE6E1C8
:1032A000F3E0628138E0631B08F460E043818181D0
:1032B0000E949D18089581E00E944E190895282FBC
:1032C000E6E1F3E0438138E0430F08F44FEF628119
:1032D00081810E949D18089581E00E945F190895E0
:1032E000282FE6E1F3E0438138E0431B08F440E097
:1032F000628181810E949D18089581E00E94701969
:10330000089520E00E949D180895EF92FF921F9368
:10331000CF93DF93EC0110E0EE24EA94F12C60915E
:103320000F01161770F00E94DF179A818C8190FFB1
:1033300025C08F5F8C83DF91CF911F91FF90EF901D
:10334000089580910D01810F9927991F9C01220FEB
:10335000331F280F391F225E3C4F70E0C7010E94C7
:10336000D42F962F8C814091190360911803199FD7
:10337000800D11240E9402171F5FD1CF8150DACF38
:10338000A0E0B0E0E6ECF9E10C944A30FC01828167
:1033900001E080FD0FEF10E080910F01181798F009
:1033A0000E94DF1780919B02013009F051C081110A
:1033B00002C080910F01815080939B02CDB7DEB790
:1033C000E9E00C94663080910D01C12ED12C8C0D5A
:1033D0009D2D911DEC01CC0FDD1FC80FD91FC25EC2
:1033E000DC4F198218821A8234E0E32EF12CB12CC2
:1033F00080919B028B0D8D302CF16CE00E94B22FDE
:10340000892F082E000C990BC816D90691F48091CB
:1034100019038E9DA0018F9D500D11245595479540
:10342000559547959E0160911803809117030E945E
:103430000217B00EF1E0EF1AF108E114F104C1F641
:103440001F5FAACF87FFDDCF90910F01890FD9CFE2
:1034500090E0019660910F0170E00E94D42FACCFF4
:103460000F931F93CF9380910D0190910E01282F00
:1034700030E0F901EE0FFF1FE20FF31FE25EFC4F99
:10348000891730F1C0E060910F01C61738F10E9432
:10349000DF172091090180919A02820F80939A028E
:1034A00090910A01920F90930A01191654F4082E74
:1034B000000C990B40910F014150550B8417950753
:1034C0001CF0219520930901CF911F910F91089530
:1034D0001182108212828F5F3396D2CF0C2F10E0B0
:1034E00070E0C8010E94D42F90910D01980F892F90
:1034F00090E020919A02022E000C330BFC01EE0F9B
:10350000FF1FE80FF91F02171307ACF020910A0103
:10351000022E000C330B201731076CF09F01225E46
:103520003C4F4091190360911803809117030E944A
:103530000217CF5FA8CFE25EFC4F11821082128289
:10354000F8CFAEE0B0E0E7EAFAE10C944D308D87B9
:103550009E87AD85BE8514961C91212F30E0D90140
:103560000E9418309B01AC010E942E3069837A833F
:103570008B839C83E0E2F0E0E11BF109A5E5B0E07C
:103580009B01AC010E942E3069877A878B879C87CC
:103590009F01DF010E9410309B01AC010E94393075
:1035A0006D837E838F8398879B01AC0189819A818B
:1035B000AB81BC81280F391F4A1F5B1F69857A8543
:1035C0008B859C850E94E82F022F30E00A3248F557
:1035D000A901440F551F420F531F55954795142FAE
:1035E0001095F12C85E5E82EE01A80910F01F81670
:1035F00030F10E94DF17AD85BE8514969C9181E065
:10360000992319F0903219F48FEF8093080180917B
:103610000801890FED85FE8584832E96E6E00C94E3
:10362000693085E590E0821B930BAC01440F551F78
:10363000480F591F57FFD1CF4F5F5F4FCECF8E2D11
:10364000F1FC802F40910D014F0D5527551F9A0118
:10365000220F331F240F351F225E3C4F412F6091F4
:1036600018030E940217F394C0CF0F931F93CF93B8
:10367000DF93EC0100E010E040910F01842F90E017
:10368000081719076CF00E94DF178C8190E00196F3
:10369000817099278C83DF91CF911F910F910895AD
:1036A00080910D01800F912F911D9C01220F331FDE
:1036B000280F391F225E3C4F9C8160911803809136
:1036C0001703469550E0041715074CF4992349F069
:1036D000409119030E9402170F5F1F4FCDCF99230E
:1036E000B9F340E0F7CFA0E0B0E0E9E7FBE10C94EC
:1036F0004330FC016280448081E08483ECE3F4E0A9
:103700007490EBEBF4E0E491C0911903C695C158B5
:10371000D0E0CC0FDD1FCD2FDD27812C75E0972E5B
:10372000AA24AA94B12C55245A94E719EE2EF12C10
:1037300080910F01881638F00E94DF17CDB7DEB7F1
:10374000E0E10C945F30C82CD12C82E0861568F043
:103750009C9CF0019D9CF00D1124E456FD4F80913E
:1037600017038083809118038183411023C09C9CA0
:10377000F0019D9CF00D1124E456FD4F138212823E
:1037800080910D018C0D9D2D911D9C01220F331FE9
:10379000280F391F225E3C4F9C9CF0019D9CF00D30
:1037A0001124E456FD4F4281618180810E940217FD
:1037B0008394BECF9C9C80019D9C100D11240456C7
:1037C0001D4FF80183818823F1F081508383589E37
:1037D000C0011124648170E00E94C02FFB01FF270B
:1037E000E45CFB4F8491E82FE7195E9EC001112431
:1037F000B7010E94C02F80911903689FB001112466
:10380000F8017283BDCF0E94FA30B5010E94D42F17
:103810008C179D070CF0B4CFF2E0F61598F40E94D7
:10382000FA30B5010E94D42FF80180830E94FA304B
:10383000209118032695622F70E00E94D42F280F44
:10384000F80121839C9CF0019D9CF00D1124E4560D
:10385000FD4F128280911903893C58F088EC9C9CA2
:10386000F0019D9CF00D1124E456FD4F8483838369
:1038700087CF8431A0F784E1F2CFE6E1F3E0208145
:103880002E7F2083318142815381648175818681BD
:1038900097810E945C171092E2020E94DF17089540
:1038A000E6E1F3E080818E7F80831092E2020E9445
:1038B000DF1708951092E2028091DF0281110AC0A1
:1038C00081E08093DF028091160381708093DE0295
:1038D0000E94501C0895609116036695669570E0ED
:1038E0004BE050E080E191E00E940A31892B19F40D
:1038F00081E08093E2020E94FF259093D902809399
:10390000D80208959091160390FF3AC08823C9F118
:103910008B32C8F58F73282F220F220F8091160348
:103920008370282B20931603662381F030911703B0
:10393000409118035091190360911A0370911B0371
:1039400080911C0390911D030E945C1760911603E7
:103950006695669570E04BE050E080E191E00E9452
:103960000A31892B91F01092E20281E08093DB0210
:103970004091190360911803809117030E948119E7
:10398000089581E0C8CF8AE2C6CF0E946B1CEDCFBC
:10399000682F80911603869586958F5F8B3208F08D
:1039A00081E00E94821C089581E00E94C81C089555
:1039B000682F90911603969596958FEF890F913009
:1039C00009F48AE20E94821C089581E00E94D81CBA
:1039D000089561E00E94821C0895E6E1F3E0808191
:1039E00081608083869586950E94E91C0895809168
:1039F000160380FF03C00E943D1C08950E94ED1C29
:103A0000089560E00E94821C08958091E002811177
:103A10003CC00E941F172093160330931703409356
:103A200018035093190360931A0370931B03809338
:103A30001C0390931D032430A0F40E9482170E945F
:103A40001F172093160330931703409318035093C6
:103A5000190360931A0370931B0380931C039093C4
:103A60001D030E9411171092E202E091E501F0910E
:103A7000E60109958091160380FF04C0869586951E
:103A80000E94011D81E08093E0020895E6E1F3E0E9
:103A9000808181608083869586950E94011D0895AE
:103AA0001092DF028091DE0281110E94461D0E9469
:103AB0006B1C08950F931F93CF93DF938091E202C5
:103AC0008823C1F18091E102E0911603E695E69525
:103AD000E81BE093DA02823091F5F0E0E85CFB4FFE
:103AE000E491CE2FD0E00FE318E18091DB02882330
:103AF00061F01092DB020E94FF259093D90280931F
:103B0000D8021092DD021092DC020E94FF25209163
:103B1000D8023091D902821B930B8F3F9F4750F4FC
:103B20002C0F3D1F3093D9022093D80288ED92E0EC
:103B3000F8010995DF91CF911F910F910895C8E287
:103B4000D0E001EA1AE1883181F2C0F48F3009F443
:103B50003AC048F4863021F1893059F1C0EDD7E000
:103B60000EEF16E1C2CF8531C9F7F0E0E45DFB4FFF
:103B7000E491CE2FD0E000E31AE1B7CFC4EFD1E05B
:103B800005E31BE1843209F4B0CF853231F1833291
:103B900029F7EAE2F4E0C591D49103E618E1A5CF54
:103BA000F0E0EB5CFB4FE491CE2FD0E003E518E1B1
:103BB0009CCFE695F0E0EE5CFB4FE491CE2FD0E099
:103BC00005E819E192CFE695F0E0E15DFB4FE49165
:103BD000CE2FD0E000EC19E188CF8E2F63E00E9459
:103BE000A62FE92FF0E0E95DFB4FE491CE2FD0E066
:103BF00003E71BE17ACF08950E945A1D0895FA0148
:103C0000882311F009950895FB01FCCFCF93DF9332
:103C1000C82FD62F0E9496178C1748F00E9496172F
:103C20008D1728F40E94D41CDF91CF9108958C2F1A
:103C30000E94E91CF9CF1F93CF93DF93EC01FB01A6
:103C40001581111168C00E94F40D8272FE01E052CC
:103C5000F847E531F10508F05EC0EE54FE4C0C94D7
:103C60000A300E94F71C812FDF91CF911F91089598
:103C700045EE5CE164ED7CE10E94FF1DF4CF44ED74
:103C80005CE165EE7CE1F8CF49E359E16BE279E173
:103C9000F3CF4BE259E169E379E1EECF4BE559E12E
:103CA0006AE479E1E9CF4AE459E16BE579E1E4CFEF
:103CB0004DE759E16CE679E1DFCF4CE659E16DE77C
:103CC00079E1DACF4BED57E16BEB77E1D5CF4BEBF9
:103CD00057E16BED77E1D0CF81E00E94E91CC3CFC3
:103CE00065E082E00E94061EBECF68E086E0FACF63
:103CF0006EE089E0F7CF64E18FE0F4CF67E185E122
:103D0000F1CF88E1EACF62E289E1ECCF83E2E5CF4F
:103D10006AE285E2E7CF11E0A6CF539A08959C01AD
:103D2000AB016BB1677F7BB17860EFB7F894CA01E4
:103D3000880F991F840F951F820F931F8217930777
:103D400041F4EFBF8FE594E00197F1F700C0000068
:103D50000895D9014D919D0158E07BB9000000C044
:103D600047FF6BB9440F000000C000C000C06BB932
:103D700000C05A9591F7E2CF0E94EB0E089580E0C3
:103D80000E94C712817008950E9483132FEF86E767
:103D900091E0215080409040E1F700C000000E9477
:103DA00083130E94BF1E882321F00E94BC1E0E9424
:103DB0007B2608950E94C41E0895CF93DF93EB01E4
:103DC00086319C4719F50E94F40D9D819923A1F03D
:103DD0008A7A91E0811101C090E09093E3028823F8
:103DE00049F085E30E9416250E94870E80E0DF914E
:103DF000CF91089589E2F6CF8091E302882321F0E4
:103E000085E30E941E25F0CF89E2FBCF81E0EFCF52
:103E1000CF93DF93EC01FB018581882309F4D2C0A5
:103E20009E0130572332310508F0B2C00E94070FBF
:103E30009093070380930603FE01E150F047E232BE
:103E4000F10520F4E953FE4C0C940A3080910603EE
:103E500081608093060393C08091070388608093FC
:103E600007038DC0809106038260F3CF8091060323
:103E70008460EFCF809106038860EBCF80910703C9
:103E80008160EDCF809107038260E9CF80910603C6
:103E90008061DFCF809106038062DBCF80910603D3
:103EA0008064D7CF0E948509809106038068D1CFB6
:103EB000809106038C60CDCF809107038360CFCFC4
:103EC000809106038E7FC5CF80910703877FC7CF80
:103ED000809106038D7FBDCF809106038B7FB9CF84
:103EE00080910603877FB5CF809107038E7FB7CF80
:103EF000809107038D7FB3CF809106038F7EA9CF7A
:103F0000809106038F7DA5CF809106038F7BA1CF83
:103F10000E948509809106038F779BCF80910603CD
:103F2000837F97CF809107038C7F99CF8091060381
:103F300082FB992790F921E0922790FB82F990FB70
:103F400083F987CF80910703982F909591708E7F8A
:103F5000892B90FB81F983CF90910603892F8F7B6A
:103F600096FF806476CF0E94850990910603892F81
:103F700097FB87F980586DCF81E00E94900F809168
:103F80000603909107030E940C0F0E94850980E0B0
:103F9000DF91CF91089580E0F0CF90910603892FB3
:103FA0008F7E94FF806155CF90910603892F8E7F7D
:103FB00090FF81604ECF90910703892F877F93FFF9
:103FC00088604DCF81E0E4CF282F35EB2303C0017B
:103FD000112497FF04C080589109892F08958058B3
:103FE0009F4FFBCF8091EA0280FF0DC060912001BE
:103FF00070E0660F771F60387105C0F561157105B7
:10400000B9F1862F089581FF07C06091200184E0F7
:10401000689FB0011124EFCF82FF04C0609120019E
:1040200088E0F6CF8091E9028823E9F090911F01A2
:104030006091200170E0891730F093E0660F771FE0
:104040009A95E1F7D8CF869F9001879F300D112474
:1040500083E0220F331F8A95E1F7692F70E0C901D1
:104060000E94D42FC8CF68E070E0CBCF8FE70895CF
:1040700081E008958091EA0280FF0CC060911C01EC
:1040800070E075956795759567956115710561F196
:10409000862F089581FF06C060911C0170E0759520
:1040A0006795F3CF60911C0170E082FD15C02091EF
:1040B000E8022223B1F090911B0160911C0170E095
:1040C000291750F4269FA001279F500D1124692F16
:1040D00070E0CA010E94D42F60387105B0F28FE7FA
:1040E000089561E070E0D4CF81E008959091ED02F1
:1040F0002091EE02922B2091F002922B2091EF0260
:10410000922B992331F098E09093E90291E09093FB
:10411000E8028D3C31F40E94F21F81958093EE02FB
:104120000895E2E3E80FE231B0F5F0E0E751FE4C2C
:104130000C940A300E94F21FF1CF0E94F21F819569
:104140008093ED0208950E94F21FFACF0E943A2058
:104150008093EF0208950E943A208195F9CF0E9442
:104160003A2081958093F00208950E943A20FACF78
:10417000815D990B21E030E001C0220F8A95EAF7BA
:104180008091EC02822B8093EC0208958091EA02E8
:1041900081608093EA0208958091EA028260F9CFFB
:1041A0008091EA028460F5CF4091ED028D3C59F494
:1041B0008091EE0287FF0DC01092EE02442359F465
:1041C0001092E90208C08E3C81F48091EE0218162C
:1041D0009CF3442381F08091EF029091F002892BAF
:1041E000811159C01092E80208958F3C41F447FFB5
:1041F000F0CF1092ED028091EE028823E0CF803D57
:1042000019F41416B4F3E5CF9091EF02893D29F427
:104210001916FCF61092EF02DCCF8A3D19F497FFD5
:10422000D8CFF8CF9091F0028B3D29F497FFD1CFF2
:104230001092F002CECF8C3D19F41916CCF3C9CFF1
:104240009FE2980F983090F4815D990B21E030E067
:10425000B90102C0660F771F8A95E2F7CB018095FE
:104260009091EC0289238093EC02B3CF8D3D31F421
:104270008091EA028E7F8093EA02ABCF8E3D21F4DB
:104280008091EA028D7FF7CF8F3D09F0A2CF809118
:10429000EA028B7FF0CF08950E94FF252091ED0266
:1042A0003091EE02232B222321F08093E60290939B
:1042B000E7022091EF023091F002232B222321F01C
:1042C0008093E4029093E5028BEE92E00E946A24D0
:1042D000089586E0EBEEF2E0DF011D928A95E9F7A2
:1042E0001092E9021092E8021092EA020895A6E004
:1042F000B0E0EDE7F1E20C94513086E0EBEEF2E055
:10430000DE01119601900D928A95E1F729813A819B
:104310004B815C816D817E8180E090E02696E2E0B9
:104320000C946D30FC01828181110DC0838181115B
:104330000AC08481811107C081E09581911101C07B
:1043400080E08170089581E0FCCFA6E0B0E0EBEA68
:10435000F1E20C944E3086E0EBEEF2E09E012F5F2E
:104360003F4FD90101900D928A95E1F71092ED022D
:104370001092EE021092EF021092F0028B819C815B
:10438000892B8901882391F08091E6029091E702C0
:104390000E9428269C018091E9028823C9F140915E
:1043A000210150E04217530708F43FC08D819E81E0
:1043B000892B882399F08091E4029091E5020E9474
:1043C00028269C018091E802882309F467C0409167
:1043D0001D0150E04217530708F46EC0B8018BEE80
:1043E00092E00E943125811105C08BEE92E00E947F
:1043F000922181110E944C2186E0F801ABEEB2E0DF
:1044000001900D928A95E1F72696E5E00C946A30CA
:10441000409122019AE0499FA001112442175307BD
:1044200028F68F5F8093E90202C08F3FD1F7FB80AF
:10443000FF2059F00E94F21F91E01F140CF09FEF33
:10444000899F802D11248093ED02FC80FF2059F07C
:104450000E94F21F91E01F140CF09FEF899F802DA6
:1044600011248093EE028091ED02882309F49ECFFF
:10447000F090EE02FF2009F499CF0E94E41F811111
:1044800001C081E08093ED028F2D0E94E41F8823FC
:1044900019F08093EE028ACF81E0FBCF40911E019C
:1044A0009AE0499FA00111244217530708F096CFC4
:1044B0008F5F8093E80202C08F3FD1F7FD80FF201D
:1044C00059F00E943A2091E01F140CF09FEF899F51
:1044D000802D11248093EF02FE80FF2059F00E946E
:1044E0003A2091E01F140CF09FEF899F802D11243A
:1044F0008093F0028091EF02882309F46FCFF0904F
:10450000F002FF2009F46ACF0E94E41F811101C06C
:1045100081E08093EF028F2D0E94E41F882319F021
:104520008093F0025BCF81E0FBCFA0E0B0E0EBE94D
:10453000F2E20C944A30E82FF0E0EF5BF94FB490D0
:10454000282F26952695269530E0F901EF51F94F51
:104550000491877010E0082E02C0159507950A9403
:10456000E2F701701127F901EF52F94FE490F12CB5
:10457000082E02C0F594E7940A94E2F791E0E9224C
:10458000FF24F901EF53F94FC491D0E002C0D59553
:10459000C7958A95E2F7C170DD27C62ED12C01158B
:1045A000110549F5E114F10431F086EE0E94200670
:1045B000C601009771F5B6018B2D0E940707C60151
:1045C000009779F5E114F104A1F50115110531F019
:1045D00081EE0E94AD06C6010097C9F5CD2B31F0E2
:1045E0008CE20E941F07C114D104C9F5CDB7DEB714
:1045F000E9E00C94663081EE0E942006C601009727
:1046000089F2EFE9FFE03197F1F700C00000019770
:10461000F6CFEFE9FFE03197F1F700C00000019716
:10462000C8CFEFE9FFE03197F1F700C00000019734
:10463000C7CF86EE0E94AD06C601009731F2EFE9C2
:10464000FFE03197F1F700C000000197F6CFEFE9E6
:10465000FFE03197F1F700C000000197BDCF8FE96F
:104660009FE00197F1F700C0000091E0C91AD1085E
:10467000BACFFF920F931F93CF93DF938C01F62E47
:10468000F8018491882309F450C0813009F048C0B2
:10469000E8012196FE018491813049F42196FE01C2
:1046A00084910E941F078E010F5F1F4FE9CF823058
:1046B00039F4E8012296FE0184910E942006F3CF8E
:1046C000833039F4E8012296FE0184910E94AD0600
:1046D000EACF843041F7E8012296FE01849120E080
:1046E00030E04AE0FE0131968053990B8A30910503
:1046F00060F021153105B9F28FE99FE00197F1F7DC
:1047000000C0000021503109F4CF429FB001439F07
:10471000700D11249C01260F371F8491EF01E2CF09
:104720006F2D0E949522E801BECFCDB7DEB7E5E040
:104730000C946A300F931F93CF93DF93C42FD22F23
:10474000FC0185818823C9F04093F3020E94FF2574
:104750009093F2028093F10280E28C0F883040F453
:10476000C77081E001C0880FCA95EAF70E94280748
:10477000DF91CF911F910F9108951091F3021413BF
:104780003CC08091F1029091F2020E942826883C60
:10479000910598F5C0E2CD0F1D1741F180E2810F20
:1047A000883040F4177081E001C0880F1A95EAF74D
:1047B0000E942F07C83020F0802F0E941F07D8CFFB
:1047C00091E08D2F877001C0990F8A95EAF7892FA4
:1047D0000E942807802F0E941F07D77081E001C028
:1047E000880FDA95EAF70E942F07C2CF802F0E9428
:1047F0001F07C83008F0BCCFF0CF80E28C0F8830A4
:1048000008F0B6CFC77081E001C0880FCA95EAF7FB
:10481000EACF0F93FC01CB01E851FC47E730F105EB
:1048200090F5E550FE4C0C940A3006E221EE41EE84
:104830006AE17CE70E949A2380E00F91089507E2E5
:1048400025EE45EE6BE17CE7F5CF06E221EE40EE8A
:1048500068E17CE7EFCF07E225EE44EE69E17CE713
:10486000E9CF06E221EE42EE6CE17CE7E3CF07E21E
:1048700025EE46EE6DE17CE7DDCF08E221E045EE76
:104880006EE17CE7D7CFFB01858181111092F302A5
:1048900081E0D3CF9093F9028093F8020895E091DC
:1048A000F802F091F902309729F00190F081E02DA3
:1048B0000995089580E008950E944F240895E0919D
:1048C000F802F091F902309721F00280F381E02D97
:1048D00009950895DC01E091F802F091F902309712
:1048E00039F082E08C930680F781E02DCD010995A7
:1048F0000895A3E0B0E0EFE7F4E20C9451309C019E
:104900008091F6029091F70282179307A1F03093FD
:10491000F7022093F602E091F802F091F902309745
:1049200051F083E089833B832A830084F185E02D65
:10493000CE01019609952396E2E00C946D30A3E038
:10494000B0E0E5EAF4E20C9451309C018091F4026D
:104950009091F50282179307A1F03093F50220930E
:10496000F402E091F802F091F902309751F084E0FE
:1049700089833B832A830084F185E02DCE01019653
:1049800009952396E2E00C946D304091040150911A
:1049900005019A012E5F3F4F485F5F4F80E0F901AC
:1049A00090812F5F3F4F91118F5F42175307B9F7E7
:1049B0000895882371F02091040130910501F901D7
:1049C0003296285F3F4F9191981729F0E217F3072D
:1049D000D1F780E0089581E008959C01FC013296B2
:1049E0008FEF90E04191461751F08F3F19F441113C
:1049F00001C0892F9F5F9630A9F78F3F09F4089572
:104A0000280F311D87FD3A95F901628308959C01B5
:104A1000FC013296285F3F4F8191861303C0DF016E
:104A200011971C92E217F307B9F70895682F809148
:104A30000401909105010E94ED240895682F809152
:104A40000401909105010E9407250895E091040159
:104A5000F0910501329686E0DF011D928A95E9F713
:104A60000895DC01FB0111969C91119781819813A7
:104A700022C012968C911297882319F09281891383
:104A80001AC013968C911397882319F09381891378
:104A900012C015968C911597882319F0958189136A
:104AA0000AC014969C91992321F081E02481291356
:104AB00003C080E001C081E08170089508950E94E4
:104AC0005E2508958F5F8093FA020E945F25089506
:104AD00083E08093FA020E945F2508950E94622578
:104AE000089581E08093FA020E945F2508950E9454
:104AF00071250895089508950E947B2508950895CD
:104B000008950E947A250895CF930E947F250E94E0
:104B100083130E948025C0E08C2F0E94C712811150
:104B200005C0CF5FC730C1F7CF91089581E0FCCFBA
:104B300085B7806885BF85B7806885BF08951F9257
:104B40001FB61F9211248F939F93AF93BF938091B1
:104B5000FB02811113C08091420390914303A09105
:104B60004403B09145034196A11DB11D80934203BA
:104B700090934303A0934403B0934503BF91AF9137
:104B80009F918F911F901FBE1F90189580914A038F
:104B9000843031F10E947C051092FB0288E190E0A4
:104BA00020E40FB6F894A895809360000FBE209380
:104BB000600083B7817F846083BF83B7816083BFD8
:104BC0007894889583B78E7F83BF0FB6F894A895A5
:104BD00080916000886180936000109260000FBE39
:104BE00008950E9485090E948505089582E084BD8C
:104BF00093E095BD9AEF97BD80936E0008952FB70F
:104C0000F8948091420390914303A0914403B091A2
:104C100045032FBF0895A4E0B0E0E1E1F6E20C9473
:104C200051308FB7F8942091420330914303409163
:104C300044035091450329833A834B835C838FBFA0
:104C400069817A818B819C812496E2E00C946D309D
:104C50009C014FB7F8948091420390914303A09137
:104C60004403B09145034FBF821B930B0895A4E00A
:104C7000B0E0EDE3F6E20C944F30462F572FBC0125
:104C80002FB7F8948091420390914303A09144037D
:104C9000B09145032FBF8C019D01041B150B260B02
:104CA000370BC901B8012496E4E00C946B3078947A
:104CB0001F921FB61F9211248F939F93AF93BF93A0
:104CC0008091420390914303A0914403B091450326
:104CD0000196A11DB11D8093420390934303A093BD
:104CE0004403B0934503BF91AF919F918F911F9063
:104CF0001FBE1F90189587E797E790930108809350
:104D0000000888E19AE00FB6F894A89580936000B7
:104D10000FBE90936000FFCF88E19AE00FB6F89441
:104D2000A895809360000FBE90936000FFCFFF9224
:104D30000F931F93CF93DF93182FEB011092BC00BA
:104D400084EA8093BC000E94FF25082FF92E8091F1
:104D5000BC0087FF28C08091B900887F883029F087
:104D60008091B900887F8031A1F51093BB0084E861
:104D70008093BC000E94FF25182F092F8091BC0052
:104D800087FF1FC02091B900287F80E090E0283184
:104D900099F081E090E0203411F480E090E091956A
:104DA0008195910909C0802F9F2D0E942826C81740
:104DB000D90768F68EEF9FEFCDB7DEB7E5E00C942C
:104DC0006A30812F902F0E942826C817D907B0F685
:104DD000F1CF8FEF9FEFF0CF1092B9008CE080936E
:104DE000B80008950F931F93CF93DF93EB01809347
:104DF000BB0084E88093BC000E94FF25182F092F78
:104E00008091BC0087FF11C02091B900287F81E00C
:104E100090E0283211F480E090E09195819591091D
:104E2000DF91CF911F910F910895CF3FDC0741F3A0
:104E3000812F902F0E942826C817D90708F78EEFD8
:104E40009FEFEECF0F931F93CF93DF93EC0184EC92
:104E50008093BC000E94FF25182F092F8091BC0071
:104E600087FF08C08091BB0090E0DF91CF911F9138
:104E70000F910895CF3FDC0789F3812F902F0E9477
:104E80002826C817D90750F78EEF9FEFEECF0F9364
:104E90001F93CF93DF93EC0184E88093BC000E94C2
:104EA000FF25182F092F8091BC0087FF08C0809133
:104EB000BB0090E0DF91CF911F910F910895CF3FFC
:104EC000DC0789F3812F902F0E942826C817D90765
:104ED00050F78EEF9FEFEECFA0E0B0E0E2E7F7E211
:104EE0000C944630782E5B016A0189010E94FF25EF
:104EF0004C010431110560F10F3F100769F1C80141
:104F000064E170E00E94C02FF62EE72E6F2D7E2DFB
:104F1000872D0E949726EC0197FF09C00F3F1007CD
:104F2000A9F3C4010E9428260817190778F775010C
:104F3000CA0CDB1CEC14FD0411F0D7FF10C084E98F
:104F40008093BC00CE01CDB7DEB7EDE00C946230AB
:104F5000FF24F394E12CDACF85E0F82EFBCFB801E3
:104F6000F70181917F010E94F226EC01E3CFA3E0DB
:104F7000B0E0EDEBF7E20C9445306B018A0179016A
:104F8000816089830E94FF254C0184E1E816F104C9
:104F9000C0F19FEFE916F906C1F1C70164E170E0C5
:104FA0000E94C02FB62EA72E6B2D7A2D89810E94CC
:104FB00097268A839B838A819B8197FF0AC09FEFF4
:104FC000E916F90689F3C4010E942826E816F906B5
:104FD00058F70150110958010115110589F58A8109
:104FE0009B8197FD31C0C7010E9447278A839B831D
:104FF0008A819B8197FD28C0F601E00FF11F808315
:1050000023C0BB24B394A12CCFCF85E0B82EFBCF17
:10501000812C912C3501C7010E9422278A839B8312
:105020008A819B8197FD10C0F601E80DF91D8083F0
:105030009FEF891A990A83018A149B0460F3CFCFEA
:105040008A819B8197FFE4CF84E98093BC008A81A9
:105050009B811816190614F480E090E02396EEE088
:105060000C946130A0E0B0E0E8E3F8E20C94453045
:10507000682E962E5A01690178010E94FF25782E2C
:10508000892E0431110530F10F3F100731F1C801AD
:1050900064E170E00E94C02F162F072F612F702F40
:1050A000862D0E949726EC0197FF19C0FFEFEF169F
:1050B000FF06A1F3872D982D0E942826E816F906F1
:1050C00068F784E98093BC00CE01CDB7DEB7EEE08F
:1050D0000C94613011E000E0E1CF15E0FCCFB701A6
:1050E000892D0E94F226EC018501CA0CDB1C0C15EF
:1050F0001D0539F3D7FDE5CFB701F80181918F0187
:105100000E94F226EC01F3CFA0E0B0E0EAE8F8E27A
:105110000C944530982E862E5A01690178010E9420
:10512000FF253C010431110550F10F3F100751F1EB
:10513000C80164E170E00E94C02F162F072F612F75
:10514000702F892D0E949726EC0197FF1DC0FFEF5D
:10515000EF16FF06A1F3C3010E942826E816F90600
:1051600070F784E98093BC00CE011C161D0614F470
:1051700080E090E0CDB7DEB7EEE00C94613011E056
:1051800000E0DDCF15E0FCCFB701882D0E94F226AC
:10519000EC0197FDE6CF689490F80E94FF25782EE9
:1051A000892E84E1E816F10490F1EFEFEE16FE0689
:1051B00089F1C70164E170E00E94C02F162F072F0C
:1051C000612F702F892D0E949726EC0197FF0BC04D
:1051D000FFEFEF16FF06A1F3872D982D0E942826DA
:1051E000E816F90668F781E0C81AD1088601C114EB
:1051F000D10491F4D7FDB5CFC7010E944727EC0138
:1052000097FDAFCFAC0CBD1CF5018083AACF11E098
:1052100000E0D6CF15E0FCCFD7FDA3CF812C912C99
:105220003801C7010E942227EC0197FD9ACFF501B2
:10523000E80DF91D8083EFEF8E1A9E0A6301801638
:10524000910678F3D7CF8091040308950895282F0D
:10525000CB01BA0130914A033430E1F42F7020932E
:10526000E9002FEF3091E80035FD07C035ED3A95A4
:10527000F1F7000021502111F5CF2091E80025FF22
:1052800009C040E050E00E94242B8091E8008E7716
:105290008093E8000895BC0143E050E082E00E9462
:1052A00027290895BC0146E050E082E00E942729AA
:1052B0000895CF93DF93D82FC92F48E050E0682F8F
:1052C000792F81E00E94272988E0ED2FFC2FACEF99
:1052D000B2E001900D928A95E1F7DF91CF910895A8
:1052E00080914903811109C00E94AC2C0E94092DB4
:1052F0008091E20084608093E20008951092490357
:1053000008950E94712508956091460381E061111E
:1053100001C080E00E946825089590914A0381E0D1
:10532000943009F080E0609146030E946E25089554
:1053300042E061EC81E00E94282C42E261EC82E0D4
:105340000E94282C90914A0381E0943009F080E07B
:10535000609146030E946225089580914C03893034
:1053600089F148F4823009F4A0C0833009F45AC0AE
:10537000813041F008958A3009F487C08B3009F4F8
:105380006CC0089580914B03813A09F04AC0809126
:10539000E800877F8093E80080914F03909150034D
:1053A000892B61F060E080E090E070E00E94732B58
:1053B0008091E8008B778093E800089568E08CEF97
:1053C00092E0F3CF80914B03813259F580914F03E6
:1053D00090915003029728F58091E800877F809391
:1053E000E8008091E80082FF18C09091F30080915E
:1053F000F200029731F48091F100813011F0863093
:1054000021F48091F100809304038091E8008B7770
:105410008093E8000E945C2C04C080914A038111B3
:10542000E0CF089580914B03813AD9F780914F03E3
:1054300090915003892BA9F78091E800877F809392
:10544000E8008091E80080FFFCCF80912D018093DF
:10545000F1008091E8008E77DBCF80914B038132A1
:1054600001F780914F0390915003892BD1F68091E1
:10547000E800877F8093E8000E945C2C80914D03B8
:1054800080932D010E948509089580914B038132FC
:1054900041F68091E800877F8093E8000E945C2CB1
:1054A00080914E0380930503089580914B03813AC8
:1054B00009F0B7CF8091E800877F8093E800809162
:1054C000E80080FFFCCF80910503C1CF84B7877FC0
:1054D00084BF0FB6F894A89580916000886180938E
:1054E0006000109260000FBE80E890E00FB6F89464
:1054F00080936100909361000FBE0E94772508950C
:105500000E94AC2C0E94092DE2EEF0E080818460C4
:10551000808378940E948C2F089583E291E00E940A
:105520004A24089580914A03853031F480914A03DA
:10553000853019F00E94F12508950E94C6258091BA
:105540004803882399F30E948425882379F30E94D5
:105550000E2B0E948509EACF08959A0140915103CC
:10556000509152030E94B52A0895AC01CB01D90194
:10557000252F332723303105E1F058F42130310550
:10558000C9F122303105D9F180E090E020E030E02F
:105590001EC02132310521F122323105A9F7892BB4
:1055A000C1F16130710581F78BE790E026E737E0C4
:1055B0000EC0CA019927413069F08230910569F027
:1055C000E5E2F7E0892B01F7849190E09F012D93AC
:1055D0003C930895E5E0F7E0F7CFE1EFF6E0F4CF94
:1055E000892B91F06130710579F689E090E024E52E
:1055F00037E0EDCF82E190E024E637E0E8CF8BE3BF
:1056000090E029E237E0E3CF89E090E02BE337E058
:10561000DECF84E490E021EF37E0D9CF80E189BD8F
:1056200082E189BD09B400FEFDCF8091D8008F7D55
:105630008093D8008091E00082608093E0008091A8
:10564000E00081FDFCCF0895AF92BF92CF92DF9230
:10565000FF920F931F93CF93DF936C01EB018A01AD
:105660000E947B2CF82E811123C00115110539F001
:10567000F80180819181C81BD90BC80ED91EA12CBD
:10568000B12C2097A9F08091E80085FD22C080917F
:10569000E8008E778093E80001151105A1F0F8016C
:1056A000808191818A0D9B1D9183808385E0F82EF6
:1056B0008F2DDF91CF911F910F91FF90DF90CF90B1
:1056C000BF90AF9008950E947B2C8823E1F2F82EC2
:1056D000EFCFF60181916F018093F1002197FFEFE9
:1056E000AF1ABF0ACECFFC019B018091510390916C
:1056F00052038617970718F0672B61F0C90140E045
:10570000009771F441110CC08091E80082FF35C010
:1057100080E008958091E8008E778093E800EECFD6
:1057200020914A032223A9F12530A9F12091E80014
:1057300023FD2DC02091E80022FDE6CF2091E80056
:1057400020FFDECF3091F3002091F200009719F096
:105750002830310558F041E02830310509F040E0AB
:105760002091E8002E772093E800CACF4191409322
:10577000F10001972F5F3F4FE9CF80914A038823C3
:1057800041F0853041F08091E80083FFBDCF81E09A
:10579000089582E0089583E00895FC019B018091C3
:1057A0005103909152038617970718F0672B61F009
:1057B000C90140E0009771F441110CC08091E800EC
:1057C00082FF36C080E008958091E8008E77809354
:1057D000E800EECF20914A032223B1F12530B1F148
:1057E0002091E80023FD2EC02091E80022FDE6CFA5
:1057F0002091E80020FFDECF3091F3002091F200ED
:10580000009719F02830310558F041E02830310573
:1058100009F040E02091E8002E772093E800CACFFD
:1058200044914093F100319601972F5F3F4FE8CFAD
:1058300080914A03882341F0853041F08091E8004F
:1058400083FFBCCF81E0089582E0089583E008954E
:10585000982F973028F08F708093E90081E00895A9
:105860009093E900242F762F50E0981731F0709133
:10587000EC002091ED005091F00021FD02C09F5FEF
:10588000E8CF3091EB003E7F3093EB003091ED009C
:105890003D7F3093ED003091EB0031603093EB00B1
:1058A0007093EC002093ED005093F0002091EE00F7
:1058B00027FDE5CF80E0089580914B0387FF13C05B
:1058C0008091E80082FF06C08091E8008B7780938A
:1058D000E80004C080914A038111F2CF08958091BD
:1058E0004A038823D9F38091E80080FFF8CF8091A4
:1058F000E8008E77ECCF2091E4003091E50095E64A
:10590000A9018091EC008170882331F08091E8003A
:1059100080FF06C080E008952091E80022FD1BC0B2
:1059200080914A03882391F0853091F08091EB00BB
:1059300085FD10C02091E4003091E5004217530727
:1059400001F391509111DCCF84E0089582E0089535
:1059500083E0089581E008950E941B2D0E94232D6D
:10596000E0EEF0E0808181608083E8EDF0E080810E
:105970008F77808319BCA7EDB0E08C918E7F8C93DC
:1059800080818F7E80831092490308950F931F9327
:10599000CF93DF930E941B2D0E94232DC8EDD0E0F2
:1059A00088818F77888388818068888388818F7DCC
:1059B000888319BC10924A03109246031092480340
:1059C0001092470300EE10E0F80180818B7F808306
:1059D00088818160888342E060E080E00E94282C1A
:1059E000E1EEF0E080818E7F8083E2EEF0E0808166
:1059F00081608083808188608083F80180818E7FD0
:105A00008083888180618883DF91CF911F910F917E
:105A10000895E8EDF0E080818F7E8083E7EDF0E08F
:105A200080818160808384E082BF81E0809349032C
:105A30000E94C62C0895E8EDF0E080818E7F80837F
:105A40001092E20008951092DA001092E100089599
:105A50001F920F920FB60F9211242F933F934F93E3
:105A60005F936F937F938F939F93AF93BF93EF93C6
:105A7000FF938091E10082FF0BC08091E20082FFE2
:105A800007C08091E1008B7F8093E1000E948B2F03
:105A90008091DA0080FF19C08091D80080FF15C086
:105AA0008091DA008E7F8093DA008091D90080FFA8
:105AB00094C080E189BD82E189BD09B400FEFDCFBB
:105AC00081E080934A030E9470298091E10080FF69
:105AD00019C08091E20080FF15C08091E2008E7FA6
